:100000000C943D010C9484010C9484010C948401A3
:100010000C9484010C9484010C9484010C9484014C
:100020000C9484010C9484010C941A120C94D61133
:100030000C9415130C9484010C9484010C94840189
:100040000C9484010C9484010C9484010C9484011C
:100050000C9484010C94F1120C9484010C9484018E
:100060000C9484010C9484010C9484010C948401FC
:100070000C9484010C9484010C9484010C948401EC
:100080000C9484010C9484010C9484010C948401DC
:100090000C9484010C9484010C9484010C948401CC
:1000A0000C9484010C9484010C9484010000525A35
:1000B0005E5A685A0000535A5F5A675A0000545AF1
:1000C000605A465A0000555A615A00000000565ABC
:1000D000625A00000000575A635A000000000000F6
:1000E000000000000000515A5D5A665A0000505A44
:1000F0005C5A655A00004F5A5B5A405A00004E5AEB
:100100005A5A000000004D5A595A000000004C5A3B
:10011000585A000000000000000000000650FF0ACE
:10012000564CA1028501250175019540050919006C
:10013000293F8102850226FF0075081900293F81A9
:1001400002C005010906A1018501050719E029E79B
:100150001500250195087501810295017508810139
:100160000507190029FF150026FF0095067508816F
:10017000000508190129059505750191029501757C
:10018000039101C005010980A101850319012AB766
:1001900000150126B700950175108100C0050C09F6
:1001A00001A101850419012AA002150126A00295CA
:1001B0000175108100C005010906A101850505072B
:1001C00019E029E715002501950875018102050749
:1001D000190029EF1500250195F075018102050828
:1001E0001901290595057501910295017503910184
:1001F000C009023B00020100A0FA0904000001034B
:1002000001010009211101000122AF00070582034D
:1002100020000A0904010001030000000921110166
:1002200000012226000705810320000112010002BF
:1002300000000008EDFE37130100010200010E036B
:10024000470065006F007200670069000000260328
:1002500067002000480065006100760079002000FA
:1002600049006E006400750073007400720069003C
:100270006500730000000403090411241FBECFEFC2
:10028000DAE0DEBFCDBF04B603FE27C08091420294
:1002900090914302A0914402B09145028730904B67
:1002A000A740B04BD1F41092420210924302109238
:1002B00044021092450214BE84B7877F84BF0FB6F4
:1002C000F894A895809160008861809360001092F6
:1002D00060000FBEE0E0F8E3099511E0A0E0B1E0B6
:1002E000E4E9FAE202C005900D92A834B107D9F70B
:1002F00022E0A8E4B1E001C01D92A234B207E1F708
:100300000E943C130C943E150C940000E8EDF0E0C4
:1003100080818E7F80831092E2001092DA0010922A
:10032000E100A0EEB0E08C9181608C9380818F77AA
:10033000808319BCA7EDB0E08C918E7F8C93808177
:100340008F7E80831092100208952091E4003091F6
:10035000E50095E6A9012091EC00822F817020FF35
:1003600006C08091E80080FF06C080E008952091DB
:10037000E80022FD1AC080913502882389F085307B
:1003800089F08091EB0085FD0FC02091E400309151
:10039000E50042175307F9F29150E1F684E0089521
:1003A00082E0089583E0089581E00895EF92FF923E
:1003B0000F931F93CF937C018B010E94A501C82F3F
:1003C000811117C08091E80085FD0BC08091E80085
:1003D0008E778093E8000E94A501882399F3C82FA7
:1003E00008C0F70181917F018093F100015011094C
:1003F00049F78C2FCF911F910F91FF90EF900895A7
:100400008091370287FF13C08091E80082FF06C009
:100410008091E8008B778093E80004C080913502DA
:100420008111F2CF0895809135028823D9F380910C
:10043000E80080FFF8CF8091E8008E77ECCF982F0E
:100440009093E900242F762F50E0891731F07091B6
:10045000EC002091ED005091F00021FD07C09F5F5E
:10046000973071F78093E90081E008953091EB00B7
:100470003E7F3093EB003091ED003D7F3093ED00F7
:100480003091EB0031603093EB007093EC002093DF
:10049000ED005093F0002091EE0027FDE0CF80E0CA
:1004A0000895CF92DF92EF92FF920F931F93CF9315
:1004B000DF93C8EDD0E088818F7E8883E7EDF0E0A0
:1004C00080818160808384E082BF81E0809310021C
:1004D00088818E7F888302EE10E0F80110821092EE
:1004E000DA0081EEC82ED12CF601108288818F7738
:1004F000888388818068888388818F7D888319BC00
:100500001092350210923602109234021092330289
:1005100090EEE92EF12CF70180818B7F808388811A
:100520008160888342E060E080E00E941F02F60163
:1005300080818E7F8083F8018081816080838081CB
:1005400088608083F70180818E7F808388818061CD
:100550008883DF91CF911F910F91FF90EF90DF90F3
:10056000CF900895FC0180913D0290913E02861744
:100570009707A0F06115710529F49091E8009E7726
:100580009093E80090E06115710551F4911108C055
:100590008091E80082FF34C080E00895BC01F2CF72
:1005A000809135028823C1F18530C1F18091E80046
:1005B00083FD30C08091E80082FDEACF8091E800A1
:1005C00080FFE1CF8091F3002091F200382F611578
:1005D000710519F02830310558F091E028303105C7
:1005E00009F090E02091E8002E772093E800CBCF2F
:1005F00081918093F100615071092F5F3F4FE7CFE8
:1006000080913502882341F0853041F08091E800E7
:1006100083FFBECF81E0089582E0089583E00895CE
:1006200008958091120208959C014FB7F89480912B
:10063000070290910802A0910902B0910A024FBFEF
:10064000821B930B08952FB7F89480910702909125
:100650000802A0910902B0910A022FBF0895DF920B
:10066000EF92FF920F931F93CF93DF93F82E0E9488
:1006700023038C0184EAE82E94E8D92E1092BC0062
:10068000E092BC000E942303EC018091BC0087FF34
:100690000DC08091B900887F8830F9F08091B90051
:1006A000887F8031D1F0CFEFDFEF08C00E942303B5
:1006B0008C1B9D0BC29748F3CEEFDFEFC8010E9461
:1006C0001403883E9340D0F2CE01DF91CF911F9169
:1006D0000F91FF90EF90DF900895F092BB00D092C1
:1006E000BC000E942303EC018091BC0087FF0AC07C
:1006F0008091B900887F883111F08034A1F6D0E074
:10070000C0E0E2CF0E9423038C1B9D0BC29760F3D5
:10071000D3CFCF93DF938093BB0084E88093BC005A
:100720000E942303EC018091BC0087FF0FC0209141
:10073000B900287F81E090E0283211F490E080E059
:10074000919581959109DF91CF9108950E9423039E
:100750008C1B9D0B883E934030F38EEF9FEFF3CFC1
:1007600020910402309105022817390771F0909307
:10077000050280930402E0910202F0910302309797
:1007800021F00084F185E02D099408952091000264
:10079000309101022817390771F09093010280937C
:1007A0000002E0910202F0910302309721F00680EE
:1007B000F781E02D09940895E0910202F09103027F
:1007C000309721F00190F081E02D099480E00895A8
:1007D00080E008958238910591F1C0F5813391054B
:1007E00009F490C028F58932910509F484C08A3251
:1007F000910509F48EC0811520E5920708F09EC08E
:10080000811540E4940708F022C18F3B910508F060
:1008100087C0883A910508F00FC1853A910508F024
:1008200002C18430910500F581309105E9F03CC0AA
:100830008533910509F458C089339105E1F620917B
:100840000B02237089F080EE90E00895833E9105BD
:1008500071F158F4803E9105E9F0823E910559F618
:1008600020910B0222FD1EC00895863E910551F194
:10087000873E910571F1843E910509F0BCCF20912E
:100880000C0221FFF1CF80910B0284FD0DC087EE99
:1008900090E0089520910B0220FD05C130910C02DB
:1008A00030FFE2CF24FF02C190E080E0DDCF209155
:1008B0000B0222FDFEC030910C0230FDC4CF24FF9C
:1008C000D3CFF2CF20910B0223FFCECF24FDECCF6C
:1008D000DECF20910B0223FDEFC030910C0231FFDF
:1008E000EECF84EE90E0089520910B0225FFBCCF5F
:1008F00089E290E0089520910B0225FFB5CF85E3B2
:1009000090E0089520910B0226FFAECF8AE290E09E
:10091000089520910B0226FFA7CF81E390E0089570
:10092000803E910508F2883E910508F49DCF9C0118
:100930003A9521153F4108F497CFB6CF811523E5AD
:10094000920740F5811542E5940708F088C08115AB
:1009500021E5920708F07EC09C0164E0369527955A
:100960006A95E1F7922F9370282F2695269523708C
:1009700040E2249F90011124392B482F437081E0DD
:1009800090E002C0880F991F4A95E2F7822B932BC3
:100990009C680895811549E59407F0F4811528E5D0
:1009A000920708F06DC0811544E5940708F07CCFEC
:1009B000AC014370552721E030E002C0220F331F05
:1009C0004A95E2F78695869540E2849FC0011124FE
:1009D000822B932B9A68089581152AE5920708F0D7
:1009E00063CF282F2F7040910B0242FF05C083FF79
:1009F0004CC0282F2770246030910C0230FF07C0B4
:100A0000322F3871383009F046C0277F216044FD0D
:100A1000277E34E0969587953A95E1F78F70982F69
:100A2000822F90690895855AE82FF0E0EA5EFE4F24
:100A3000808190E090640895885AE82FF0E0EE0FEE
:100A4000FF1FE75EFE4F80819181946408959F703F
:100A5000906A0895982F8827816F906A0895AC0155
:100A60004370552721E030E002C0220F331F4A9522
:100A7000E2F78695869540E2849FC001112486CFD7
:100A8000982F8827806F906A089582FFB5CF282F0E
:100A90002B702860B1CF322F3171313009F0B7CFD0
:100AA0002E7F2860B4CF89E390E0089583EE90E034
:100AB000089582EE90E0089586EE90E0089580918A
:100AC000920190919101892B90919001892B8093B3
:100AD0004B01E0910202F0910302309799F080916E
:100AE0001501882369F080910B0287FF09C085E01A
:100AF00080934A010280F381E02D8AE491E0099419
:100B000081E0F6CF0895909115019923D1F090914D
:100B10000B0297FF16C0E82FE695E695E695EE31B5
:100B2000E0F4F0E0E65BFE4F282F277081E090E0D4
:100B300001C0880F2A95EAF78095928189238283E4
:100B40000895EDE4F1E09191891303C0DF0111975D
:100B50001C9291E0E335F907B1F7089590911501E2
:100B60009923C1F090910B0297FF14C0E82FE695EE
:100B7000E695E695EE31F8F4F0E0E65BFE4F87701F
:100B800021E030E001C0220F8A95EAF78281822BB2
:100B900082830895ADE4B1E0EFEF90E02D918217EC
:100BA00051F0EF3F19F4211101C0E92F9F5F9630FA
:100BB000A9F7EF3F09F408950E2E000CFF0BE65B3A
:100BC000FE4F838308958F929F92AF92BF92CF92F0
:100BD000DF92EF92FF920F931F93CF93DF9380905A
:100BE000970190909801A0909901B0909A0140913E
:100BF0009301509194016091950170919601842A1E
:100C0000952AA62AB72ACFE1D0E0E92EF12C2EE0D2
:100C1000C22E082F10E0DC2ED501C4010C2E04C01A
:100C2000B695A795979587950A94D2F780FD11C040
:100C3000219788F7D12C8D2DDF91CF911F910F91A6
:100C4000FF90EF90DF90CF90BF90AF909F908F90EC
:100C50000895CC9EF001CD9EF00D1124EE0DFF1DE8
:100C6000EE0FFF1FEE0FFF1FE00FF11FEE0FFF1F34
:100C7000E455FF4F859194910E94EA030197C1F2D8
:100C8000DACF990F990F890F982F977086958695CF
:100C9000869525E0829FF0011124E359FE4F50E034
:100CA00040E080E0219130E0092E02C03695279582
:100CB0000A94E2F721703327042E01C0220F0A9410
:100CC000EAF7822B4F5F5F4F4530510559F7089582
:100CD000990F990F890F982F977041E001C0440F29
:100CE0009A95EAF786958695869595E0899FF00115
:100CF0001124E359FE4F30E020E070E05191DF0114
:100D00001197CB01022E02C0969587950A94E2F7BF
:100D1000817081958527842385278C932F5F3F4F92
:100D20002530310559F7089590E080E00E94C60310
:100D300090E080E00E94B003109291011092900127
:100D40000C945F05609397017093980180939901CB
:100D500090939A010C94940660939301709394017C
:100D600080939501909396010C949406882341F00A
:100D70008095909192018923809392010C945F0554
:100D80000895882339F090919201982B90939201C5
:100D90000C945F050895882309F452C0823871F4D9
:100DA0000E94DC0381FF4CC089E30E94AE050E94D3
:100DB0005F0589E30E9483050C945F05833859F42D
:100DC0000E94DC0380FF3CC083E50E94AE050E94C8
:100DD0005F0583E5EFCF843859F40E94DC0382FF7E
:100DE0002FC087E40E94AE050E945F0587E4E2CF32
:100DF0009CEF980F913AF0F290E2980F983088F4B7
:100E0000877021E030E0A90102C0440F551F8A9588
:100E1000E2F7CA0180959091920189238093920113
:100E2000CBCF9BE5980F933020F490E080E00C94BA
:100E3000C603885A873120F490E080E00C94B00318
:100E40000895CF93C82F873050F580910A01909173
:100E50000B01892B11F580E40E942F0390930B0165
:100E600080930A01892BB1F482E10E948903909357
:100E70000B0180930A01892B69F481E090E001C0A5
:100E8000880FCA95EAF780950E94890390930B0119
:100E900080930A0184E98093BC00CF9108958A3041
:100EA000B1F038F4883069F0893071F0209A2898D0
:100EB000F4CF8C3091F070F08D30C1F73E9A4698A7
:100EC000ECCF219A2998E9CF229A2A98E6CF239A43
:100ED0002B98E3CF529A5A98E0CF539A5B98DDCF84
:100EE00084B1807F84B985B1807F85B93E9846986A
:100EF0008AB1837F8AB98BB1837F8BB9089580B320
:100F00008D7880BB81B3826781BB0895CF92DF92D9
:100F1000EF92FF920F931F93CF93DF93C82F8730E9
:100F200008F090C080910A0190910B01892B09F083
:100F300094C080E40E942F0390930B0180930A01D8
:100F4000892B09F44BC090E084E98093BC002C2FDE
:100F500030E0F901ED52FE4FA081A9279083F901FD
:100F6000EE0FFF1FEE0FFF1FE556FE4F70E060E033
:100F700040E0C1E0D0E0CA2ED12C55E0162F81917F
:100F8000882309F46CC07F01A1E0EA1AF1088150BE
:100F9000D7018C93D60102C0B595A7951A95E2F7B3
:100FA000A0FF05C08F0101501109D8015C936F5F4C
:100FB0007F4F6430710511F72F513E4F842F80957C
:100FC000F901208182239423892BDF91CF911F91F6
:100FD0000F91FF90EF90DF90CF90089583E10E94F2
:100FE000890390930B0180930A01892B09F0ABCF01
:100FF00081E40E942F0390930B0180930A01892BB7
:1010000009F0A1CF84E88093BC000E9423038C01E7
:101010008091BC0087FF08C09091BB009095109212
:101020000B0110920A0190CF0E942303801B910BA9
:10103000883E934068F38EEF9FEF90930B0180936F
:101040000A0181CF8FB19FB1869581709695969553
:1010500096959E70982B90957ACF90E078CF7E01F0
:10106000062E01C0EE0C0A94EAF74E2993CF909118
:101070003502943031F580930D0270930F02609326
:101080000E0282E08093E9008FEF9091E80081509A
:1010900095FD06C095ED9A95F1F700008111F5CF09
:1010A0008091E80085FF0DC050E040E063E070E013
:1010B0008DE092E00E94D6018091E8008E778093C7
:1010C000E8000895BC0184E00C943708BC0183E07B
:1010D0000C943708CF93DF93EC018091150188239E
:1010E00021F080910B0260E287FF69E082E080934B
:1010F000E9008FEF9091E800815095FD06C095EDD5
:101100009A95F1F700008111F5CF8091E80085FFF5
:1011100019C080911501811118C050E040E068E0CD
:1011200070E0CE0101960E94D6018091E8008E7792
:101130008093E80080E2FE01A3E1B2E001900D920D
:101140008A95E1F7DF91CF91089570E050E040E09B
:10115000CE01E9CFCF93C82F882309F4A6C08238E7
:10116000C1F40E94DC0381FDA0C089E30E94AE05AA
:101170000E945F052FEF81EE94E021508040904067
:10118000E1F700C0000089E30E948305CF910C9431
:101190005F058338A1F40E94DC0380FD86C083E5EF
:1011A0000E94AE050E945F052FEF81EE94E0215072
:1011B00080409040E1F700C0000083E5E5CF84382F
:1011C000A1F40E94DC0382FD70C087E40E94AE059A
:1011D0000E945F052FEF81EE94E021508040904007
:1011E000E1F700C0000087E4CFCF8CEF8C0F813A8D
:1011F00088F580911501882301F180910B0287FF0A
:101200001CC0EC2FE695E695E695F0E0E65BFE4F18
:10121000828190E04C2F477021E030E002C0220F25
:10122000331F4A95E2F782239323892B79F08C2F81
:101230000E9483050E945F0509C0EDE4F1E0819101
:10124000C817A9F321E0E335F207C9F78C2F0E94F4
:10125000AE059CCF80E28C0F883068F4C77021E027
:1012600030E001C0220FCA95EAF780919201822BEB
:10127000809392018BCFEBE5EC0FE33040F4F0E08C
:10128000EA5EFE4F808190E0CF910C94C603C85A6D
:10129000C73158F4EC2FF0E0EE0FFF1FE75EFE4F72
:1012A00080819181CF910C94B003CF9108950F93D9
:1012B0001F93CF93DF93C62FD42F022FFC0182817F
:1012C0008823A1F0609341020E942303909340027F
:1012D00080933F02C77081E001C0880FCA95EAF78A
:1012E000DF91CF911F910F910C94C1068091410223
:1012F000681338C080913F02909140020E9414030D
:10130000883C910578F510E21D0FCD17B9F080E209
:101310008C0F883040F4C77081E001C0880FCA95F7
:10132000EAF70E94B606183048F481E09D2F9770C6
:1013300001C0880F9A95EAF70E94C106802F0E948B
:10134000AA08802F0E94CB06183098F4D77081E04D
:1013500001C0880FDA95EAF7DF91CF911F910F91C5
:101360000C94B606C77081E001C0880FCA95EAF7F1
:10137000F3CFDF91CF911F910F91089580E290E01C
:1013800090930B0180930A0180916B01811111C030
:101390001092B9008CE08093B80081E080936B01DB
:1013A0002FEF83ED90E3215080409040E1F700C0A3
:1013B000000080E40E942F0390930B0180930A01A8
:1013C000892B09F040C080E00E94890390930B01B3
:1013D00080930A01892BB9F580E80E9489039093D4
:1013E0000B0180930A01892B71F58FEF0E9489030D
:1013F00090930B0180930A01892B29F584E980934E
:10140000BC0080E40E942F0390930B0180930A019B
:10141000892BC9F48CE00E94890390930B0180937F
:101420000A01892B81F480E80E94890390930B01C3
:1014300080930A01892B39F48FEF0E9489039093DE
:101440000B0180930A0184E98093BC0080910A011A
:101450000895CF9384E090E00E94FC14C82F82E2AC
:1014600090E00E94FC14982F8C2FCF91089569EE84
:101470007EEF90E080E00E94281560E082E090E03E
:101480000E940A1560E083E090E00E940A15109225
:10149000930110929401109295011092960160E0D0
:1014A00084E090E00E940A1560E082E290E00E94F1
:1014B0000A1560E085E090E00E940A1560E086E091
:1014C00090E00E940A156FEF87E090E00E940A15F5
:1014D00040E050E0BA0188E090E00E941C1560E016
:1014E0008DE090E00E940A1540E050E0BA0188E1EA
:1014F00090E00E941C1560E087E190E00E940A15D0
:1015000040E050E0BA018CE190E00E941C1570E0D0
:1015100060E080E290E00E94281540E050E0BA01CF
:1015200088E190E00E941C1540E050E0BA018FE095
:1015300090E00E941C1540E050E0BA0183E190E089
:101540000C941C151092920180911501882369F06A
:1015500080910B0287FF09C0ECE4F1E08EE1DF012E
:101560001D928A95E9F70C949406EDE4F1E086E08B
:10157000F6CF1F93CF93DF93CDB7DEB7AA970FB601
:10158000F894DEBF0FBECDBF87E392E02091F1005B
:10159000FC012193CF01F2E08F339F07B9F78091CF
:1015A0003802833009F46FC0B8F4813009F446C0C2
:1015B000823009F4B0C08091E80083FF7BC2809143
:1015C0003702909138029A3008F074C2E92FF0E0A7
:1015D000E05CFA4E0C94F6148A3009F48BC08B3020
:1015E00009F46EC0893039F780913702813219F7DA
:1015F00080913B0290913C02892BE9F68091E800B2
:10160000877F8093E8008091E80082FF37C0909147
:10161000F3008091F200029729F48091F1008B7F12
:10162000813021F48091F100809312028091E800D2
:101630008B778093E8000E940002BDCF8091370233
:10164000813A09F0B8CF8091E800877F8093E80065
:1016500080913B0290913C02892B61F460E283E12E
:1016600092E070E00E94B2028091E8008B77809354
:10167000E800A1CF60E090E080E0F3CF80913502F8
:101680008111C1CF98CF80913702813A09F093CF71
:1016900080913B0290913C02892B09F08CCF809184
:1016A000E800877F8093E8008091E80080FFFCCF0E
:1016B000809115018093F1008091E8008E77B9CF79
:1016C00080913702813209F076CF80913B02909170
:1016D0003C02892B09F06FCF8091E800877F8093CF
:1016E000E8000E94000280913902809315010E9457
:1016F000A20A61CF80913702813209F05CCF8091DC
:10170000E800877F8093E8000E94000280913A02FF
:101710008093110250CF80913702813A09F04BCF6C
:101720008091E800877F8093E8008091E80080FF47
:10173000FCCF80911102BECF803899F0823809F039
:10174000B9C180913B028F70873008F0B3C180939C
:10175000E9008091EB0085FB882780F91092E90071
:1017600006C0809133029091340291118260909171
:10177000E800977F9093E8008093F1001092F100C9
:101780008091E8008E7792C1882309F480C182306D
:1017900009F090C180913902811183C180913B028F
:1017A0008F702FEF280F263008F084C18093E90056
:1017B0002091EB0020FF75C1933031F48091EB0054
:1017C00080628093EB006DC19091EB0090619093EB
:1017D000EB0021E030E001C0220F8A95EAF7209368
:1017E000EA001092EA008091EB008860EACF811154
:1017F00061C1109139021F778091E3008078812BBD
:101800008093E3008091E800877F8093E8000E9446
:1018100000028091E80080FFFCCF8091E3008068A7
:101820008093E30082E0111183E08093350242C18E
:101830008058823008F03EC18091390290913A027E
:101840008C3D23E09207A1F583E08A838AE28983B5
:101850004FB7F894DE01139620E03EE051E2E32F0B
:10186000F0E050935700E49120FF03C0E295EF7041
:101870003F5FEF708E2F90E0EA30C0F0C7968D93F7
:101880009D932F5F243159F74FBF8091E800877FE8
:101890008093E8006AE270E0CE0101960E94B202F5
:1018A0008091E8008B778093E80004C1C096E7CF71
:1018B00040913B0250913C02292F332723303105C0
:1018C00009F444C078F52130310509F46FC08BE389
:1018D00090E0E1EFF1E02230310509F0EBC020911A
:1018E000E800277F2093E80020913D0230913E02DE
:1018F0008217930708F49C0140E02115310509F097
:1019000064C0411162C08091E80082FDC9CF80911E
:101910003502882329F2853019F28091E80083FF8F
:10192000F2CFBECF21323105A9F12232310509F0C3
:10193000C1C04115510509F443C04130510509F0BA
:10194000B9C086E290E0ECE1F1E0C9CF992781309F
:101950009105C1F0009759F0029709F0ABC0EEE392
:10196000F2E0E4918E2F90E0EEE3F2E007C0E6E7CC
:10197000F2E0E4918E2F90E0E6E7F2E0009709F4C0
:1019800099C0ADCFEEE4F2E0E4918E2F90E0EEE46A
:10199000F2E0F4CF4115510571F04130510509F0E5
:1019A00089C089E090E0ECE1F2E099CF82E190E03B
:1019B000ECE2F2E094CF89E090E0E3E0F2E08FCF58
:1019C0008FEA90E0E2E4F1E08ACF8091350288234B
:1019D00009F466CF853009F463CF8091E80083FD78
:1019E0005FCF8091E80082FD8ECF8091E80080FF7C
:1019F00084CF9091F3008091F2002115310519F008
:101A00008830910550F041E0089709F040E080915E
:101A1000E8008E778093E80070CF44914093F10006
:101A20003196215031090196E8CF803809F042C043
:101A30008091E800877F8093E80080913602809350
:101A4000F1009ECE811136C010913902123090F50E
:101A50008091E800877F8093E800109336020E940F
:101A60000002112311F084E005C08091E30087FD9E
:101A7000FACF81E08093350242E261EC82E00E947D
:101A80001F0242E161EC81E00E941F0213C08091BD
:101A90003902813079F481E0933009F080E080935D
:101AA00034021092E9008091E800877F8093E8007B
:101AB0000E9400028091E80083FF0AC08091E80044
:101AC000877F8093E8008091EB0080628093EB0039
:101AD000AA960FB6F894DEBF0FBECDBFDF91CF91AF
:101AE0001F9108958F929F92AF92BF92CF92DF92F3
:101AF000EF92FF920F931F93CF93DF93CDB7DEB793
:101B00002F970FB6F894DEBF0FBECDBF4B875C8713
:101B10006D877E878F8761111092910185E0FE01AC
:101B20003B96DE01169601900D928A95E1F7898524
:101B30009A85892B39F01E810F81812F80238F3F59
:101B400009F078C32F960FB6F894DEBF0FBECDBF55
:101B5000DF91CF911F910F91FF90EF90DF90CF9089
:101B6000BF90AF909F908F9008950E94E305F82E4C
:101B7000682F89819A810E946806E02FF0E02EE0AC
:101B8000F29EE00DF11D1124EE0FFF1FEE0FFF1F5F
:101B9000E10FF11DEE0FFF1FE455FF4F059114916A
:101BA000C80180549A458034910508F475C0043FFB
:101BB0003CE5130709F494C0B0F4093D9CE519070E
:101BC00009F48AC00A3D2CE5120709F499C0083DC2
:101BD0003CE51307A1F426E241EE61EECE01069644
:101BE0000E945709AFCF063F8CE5180709F480C063
:101BF00008F47AC0073F2CE5120709F47DC08885F8
:101C0000882309F428C31092410202303CE51307EF
:101C100008F455C106319CE5190738F098012B5F8F
:101C20003C452930310508F04AC10E94290A9093A9
:101C30000C0280930B0200312CE5120709F40EC14F
:101C400008F098C008308CE5180709F4F5C008F0D2
:101C50006DC004302CE5120709F4E6C008F053C04B
:101C600002308CE5180709F4D9C080910B0282601C
:101C700003301C4509F4D5C060910B0210910C0291
:101C800084E090E00E940A15612F82E290E00E94B9
:101C90000A150E94A20A56CF0054E02FE695E69559
:101CA000E695F0E0E35FFE4F208110E0009510958F
:101CB0000770112781E090E001C0880F0A95EAF7CC
:101CC0003885332331F0822B808381E08093FF01BC
:101CD00039CF80958223F8CF27E245EE65EE7ECF9F
:101CE00026E241EE60EE7ACF27E245EE64EE76CF53
:101CF00026E241EE62EE72CF27E245EE66EE6ECF4F
:101D000028E241E0EBCF80910B02806106302CE5A8
:101D1000120709F486C080910B02886007301C45C9
:101D200008F47FC080910B0280627BC00C308CE590
:101D3000180709F48BC070F480910B028C600A3094
:101D40002CE5120709F46DC008F47AC080910B02EB
:101D50008E7F67C00E308CE5180709F47BC0809138
:101D60000B028B7F0F301C4508F45BC080910B0287
:101D70008F7E57C00C3F2CE5120709F459C030F58F
:101D800003318CE5180709F471C078F401312CE5B2
:101D9000120709F467C002311C4509F06DCF0E949B
:101DA000A20A80910B028F773CC005318CE51807A1
:101DB00009F464C008F478C080910C0281600B3F84
:101DC0001C4509F059CF80930C0256CF01153DE513
:101DD000130709F44FC088F480910C028D7F0E3FE9
:101DE0009CE5190781F380910C028E7F0F3F1C4503
:101DF00050F380910C028360E6CF02303DE513077B
:101E000009F45BC008F446C060E003301D4509F0EA
:101E100033CF8EE090E00E940A152ECF80910B0206
:101E2000816080930B0228CF80910B028460F9CFF0
:101E300080910C028260C7CF80910B028064F1CF49
:101E40000E94A20A80910B028068EBCF80910B0266
:101E50008D7FE7CF80910B02877FE3CF80910B02CC
:101E60008F7DDFCF80910B028F7BDBCF80910B02C8
:101E7000837FD7CF80910C028C7FA5CF80910B02FE
:101E800082FB992790F921E0922790FB82F990FB41
:101E900083F9C7CF80910C02982F909591708E7F17
:101EA000892B90FB81F98FCF0E94A20A90910B029F
:101EB000892F97FB87F98058B4CF61E0AACF06310C
:101EC0002CE5120709F0D2C1809192018A7A91E043
:101ED00009F490E090936C01811106C089E20E94A0
:101EE000AE050E945F052ECE85E3F9CF85E3BBC129
:101EF0000E94A20A3FEF84E39CE031508040904072
:101F0000E1F700C0000081E08093E00080E2809370
:101F1000D8001092C9008FE19EE40197F1F700C04C
:101F2000000087E090EBDC01809342029093430233
:101F3000A0934402B093450288E19CE00FB6F89468
:101F4000A895809360000FBE90936000FFCF0E9421
:101F5000370AF8CD812F902F0E944106F82E9EC19E
:101F6000183009F47DC0193009F0BBC19F70C12C35
:101F7000D12C7601C39404C0CC0CDD1CEE1CFF1CDC
:101F80009A95D2F7882309F43FC160919701709127
:101F900098018091990190919A016C297D298E294F
:101FA0009F290E94A206802F0E94C1069AC1292F54
:101FB0002F70F22E907F19F0F294A0EFFA2288236E
:101FC000C9F0FF2069F080E2800F883010F0011125
:101FD0000BC080919201F82AF09292010E945F0555
:101FE000802F0E94AA087DC180919101F82AF09269
:101FF0009101F4CF802F0E94CB06FF2009F471C11C
:10200000F094005E083010F0E11008C08091920159
:10201000F822F09292010E945F0563C180919101C4
:10202000F822F0929101F7CF292F2695269523705B
:1020300051F0213009F055C1882379F0802F937039
:102040000E94B0034EC1882329F0802F93700E9414
:10205000C60347C190E080E0FACF90E080E0F0CF87
:10206000292F237009F065C081113BC1802F829513
:1020700086958770880F880F402F4F7050E070E072
:1020800060E0082E04C0440F551F661F771F0A9496
:10209000D2F7C12CD12C760104FF10C0FFE0CF2E67
:1020A000D12CE12CF12C04C0CC0CDD1CEE1CFF1C4F
:1020B0008A95D2F7C094D094E094F0949695969532
:1020C0009370923019F1D8F480909301909094011C
:1020D000A0909501B0909601913069F04C295D294E
:1020E0006E297F29CB01BA01682179218A219B21A0
:1020F0000E94AC06F6C0482959296A297B29CB01E0
:10210000BA016C297D298E299F29F2CF4C295D299E
:102110006E297F29C0909301D0909401E0909501A1
:10212000F0909601CB01BA016C257D258E259F2567
:10213000DFCF2695882311F0292F2170222309F45F
:10214000D0C0802F829586958770880F880F402F8A
:102150004F7050E070E060E0082E04C0440F551F3F
:10216000661F771F0A94D2F7C12CD12C760104FF89
:1021700010C0EFE0CE2ED12CE12CF12C04C0CC0C01
:10218000DD1CEE1CFF1C8A95D2F7C094D094E0941D
:10219000F094969596959370923019F1D8F48090BA
:1021A000970190909801A0909901B0909A01913078
:1021B00069F04C295D296E297F29CB01BA0168217C
:1021C00079218A219B210E94A2068BC04829592986
:1021D0006A297B29CB01BA016C297D298E299F2987
:1021E000F2CF4C295D296E297F29C0909701D090AC
:1021F0009801E0909901F0909A01CB01BA016C2509
:102200007D258E259F25DFCF802F0E94B606C70132
:10221000B6016095709580959095C0909701D0908B
:102220009801E0909901F0909A016C217D218E2116
:102230009F21C9CF85E0FE013696DE0111960190FF
:102240000D928A95E1F789819A8161118ECC0E9465
:102250004106F82E92CC06311C4589F480916C0120
:10226000811144CE89E20E9483053BCE01152CE505
:10227000120709F43DCE0F3D1C4509F468CE1E81BE
:102280000F81882309F466CE812F902F0E94E305E9
:10229000F82E682F812F902F0E946806E02FF0E023
:1022A0009EE0F99EE00DF11D1124EE0FFF1FEE0FD1
:1022B000FF1FE10FF11DEE0FFF1FE455FF4F85914A
:1022C00094910E94EA03082FE82E8885192F129511
:1022D0001F70143009F4A8CE08F042CE123008F472
:1022E00066CE212F2850330B2230310510F40E9486
:1022F000DC0385E0FE013696DE01119601900D9219
:102300008A95E1F789819A810E944106EA81F0E08D
:102310003EE0839FE00DF11D1124CF01880F991F2E
:10232000880F991FE981E80FF92FF11DEE0FFF1FAC
:10233000E455FF4F8591949105CC0F931F93CF9354
:10234000DF9380910A0190910B01892B71F08091AC
:102350006A018F5F80936A01811107C00E94BE09E4
:1023600090E090930B0180930A0101EE11E0C0E030
:102370008C2F0E942107D7E0DC0F8D2F0E942107B0
:102380008C2F0E948607F80181938F018D2F0E9468
:102390008607F80186830E947007CF5FC73041F738
:1023A00081E0DF91CF911F910F9108951F920F92BD
:1023B0000FB60F9211242F933F934F935F936F9318
:1023C0007F938F939F93AF93BF93CF93DF93EF93BD
:1023D000FF93D091E900DF708091EC00C82FC170AD
:1023E00080FDC0E81092E9008091F000877F809323
:1023F000F00078940E94B90A1092E9008091F000F0
:1024000088608093F000CD2BCF70C093E900FF91DE
:10241000EF91DF91CF91BF91AF919F918F917F917C
:102420006F915F914F913F912F910F900FBE0F9041
:102430001F9018951F920F920FB60F9211242F9391
:102440003F934F935F936F937F938F939F93AF933C
:10245000BF93EF93FF938091E10082FF09C08091C9
:10246000E20082FF05C08091E1008B7F8093E10054
:102470008091DA0080FF24C08091D80080FF20C0C6
:102480008091DA008E7F8093DA008091D90080FFFE
:102490009BC080E189BD82E189BD09B400FEFDCF0A
:1024A00081E08093350280911002811109C00E9461
:1024B00086010E9451028091E20084608093E200D4
:1024C0008091E10080FF17C08091E20080FF13C07F
:1024D0008091E2008E7F8093E2008091E200806133
:1024E0008093E2008091D80080628093D80019BC6C
:1024F00085E0809335028091E10084FF29C08091BE
:10250000E20084FF25C080E189BD82E189BD89B5F3
:10251000982F917080FFFBCF8091D8008F7D8093A2
:10252000D8008091E1008F7E8093E1008091E200ED
:102530008F7E8093E2008091E20081608093E200D0
:1025400080913602882309F445C084E080933502E7
:102550008091E10083FF27C08091E20083FF23C0C8
:102560008091E100877F8093E10082E080933502D3
:10257000109236028091E1008E7F8093E10080917D
:10258000E2008E7F8093E2008091E2008061809380
:10259000E20042E060E080E00E941F028091F000D3
:1025A00088608093F000FF91EF91BF91AF919F9170
:1025B0008F917F916F915F914F913F912F910F90EC
:1025C0000FBE0F901F90189519BC109235021092F3
:1025D000100276CF8091E30087FD93E0909335025F
:1025E000B7CF78941F921FB61F9211248F939F9399
:1025F000AF93BF938091070290910802A0910902C6
:10260000B0910A020196A11DB11D8093070290931B
:102610000802A0930902B0930A02BF91AF919F9163
:102620008F911F901FBE1F9018951F921FB61F926B
:1026300011248F939F93AF93BF93809106028111D2
:1026400013C08091070290910802A0910902B091F5
:102650000A024196A11DB11D8093070290930802C2
:10266000A0930902B0930A02BF91AF919F918F91FD
:102670001F901FBE1F901895CDB7DEB72A970FB6D3
:10268000F894DEBF0FBECDBF84B7877F84BF0FB67F
:10269000F894A89580916000886180936000109202
:1026A00060000FBE80E890E00FB6F8948093610060
:1026B000909361000FBE85B7806885BF85B780683D
:1026C00085BF88EE93E090934901809348010E9472
:1026D00086010E9451028091E20084608093E200B2
:1026E0007894809135028823A1F01091E9001F7041
:1026F0009091EC00892F817090FD80E8182B10924A
:10270000E9008091E80083FD0E94B90A1F701093D0
:10271000E90082E084BD93E095BD9AEF97BD809378
:102720006E000E94BE0990E090930B0180930A0115
:102730000E9470070E947F0783ED91E0EBE9F1E0D2
:1027400041EE51E0DA011D92AD01DC011D92CD0197
:1027500010821182128213823496B1E04F3E5B07E1
:1027600089F790E080E00E940415893E9E4F11F0A9
:102770000E94370A82E090E00E94FC148093F001EE
:102780000E94290A90930C0280930B0283E090E050
:102790000E94FC14682F70E090E080E00E94AC067C
:1027A0003F988AB18F708AB96E98479A8BB1806FC3
:1027B0008BB9769A60910B02606860930B0210915E
:1027C0000C0284E090E00E940A15612F82E290E002
:1027D0000E940A1580E091E0909303028093020228
:1027E00088E1C82ED12C90E4992E20E1A22E32E16E
:1027F000B32EEE24EA9480913502853049F480911D
:102800003502853009F479C00E94A20A0E94DC03D7
:102810000E949D11882359F08FB7F89440910702C8
:10282000509108026091090270910A028FBFE1EF96
:10283000F1E0A1EEB1E010E000E0302F8D91919138
:10284000981709F4A7C0292F282790E0FF24F394B4
:102850004F2D422309F499C099833A838F2191E047
:1028600009F490E09B830E9423038160782F9D836D
:102870008C8349815A816B818D810E94720DF80190
:10288000EF50FE4F8081F826F0820E94DC03909189
:10289000EF01891721F00E94DC038093EF01809102
:1028A0003502843009F0A7CF8091FF01882309F415
:1028B000A2CF1091E9001F709091EC00892F8170D8
:1028C00090FD80E8182B81E08093E9008091E8007A
:1028D00080FF0FC050E040E069E070E08CE091E0E4
:1028E0000E94D6018091E8008E778093E8001092D4
:1028F000FF011F701093E9007ECF80913502843074
:1029000009F1109206020FB6F894A895C0926000E3
:102910000FBE9092600083B7817F846083BF83B7CE
:10292000816083BF7894889583B78E7F83BF0FB60D
:10293000F894A8958091600088618093600010925F
:1029400060000FBE80913402882309F458CF0E94A2
:10295000BE0990E090930B0180930A010E947007DA
:102960000E947F07E1EEF1E0119281E0EF3EF8076F
:10297000D9F70E949D11E1EEF1E08191811120C013
:10298000A1E0EF3EFA07C9F73ACF9F5FFF0C943002
:1029900009F05ECF0F5F1F4F0E30110509F04DCFCC
:1029A000EE82EF8218860E9423038160782F9A8737
:1029B00089874E815F8168858A850E94720D65CF07
:1029C000A9BCB9BC09B400FEFDCF8091D8008F7DB1
:1029D0008093D8008091E00082608093E000809135
:1029E000E00081FDFCCF0E94A20A09CFEE0FFF1F7D
:1029F0000590F491E02D0994F999FECF92BD81BD27
:102A0000F89A992780B50895A8E1B0E042E050E037
:102A10000C943015262FF999FECF92BD81BDF89AFE
:102A2000019700B4021639F01FBA20BD0FB6F89412
:102A3000FA9AF99A0FBE08950396272F0E940B1554
:102A40000E940A15252F0E940B15242F0C940B159C
:102A50000196272F0E940B150C940A15DC01CB015F
:102A6000FC01F999FECF06C0F2BDE1BDF89A31969E
:102A700000B40D9241505040B8F70895F894FFCF3C
:102A80009C0BC40B5A0DC40B5A0DF70B180C5A0DA6
:042A9000150D220DF1
:102A940011036A08100366086208200001000000A0
:102AA400000000000001818283E200E900EA00B531
:102AB40000B600B700CD008301CC008A01920194D6
:102AC400012102230224022502260227022A02B33C
:082AD40000B4006F0070000067
:00000001FF
