:100000000C9436010C947D010C947D010C947D01BF
:100010000C947D010C947D010C947D010C947D0168
:100020000C947D010C947D010C9413120C94CF114F
:100030000C940E130C947D010C947D010C947D01A5
:100040000C947D010C947D010C947D010C947D0138
:100050000C947D010C94EA120C947D010C947D01AA
:100060000C947D010C947D010C947D010C947D0118
:100070000C947D010C947D010C947D010C947D0108
:100080000C947D010C947D010C947D010C947D01F8
:100090000C947D010C947D010C947D010C947D01E8
:1000A0000C947D010C947D010C947D010000525A4A
:1000B0005E5A685A0000535A5F5A675A0000545AF1
:1000C000605A465A0000555A615A00000000565ABC
:1000D000625A00000000575A635A000000000000F6
:1000E000000000000000515A5D5A665A0000505A44
:1000F0005C5A655A00004F5A5B5A405A00004E5AEB
:100100005A5A000000004D5A595A000000004C5A3B
:10011000585A000000000000000000000650FF0ACE
:10012000564CA10225017501954005091900293F8A
:100130008102C005010906A1018501050719E02911
:10014000E715002501950875018102950175088163
:10015000010507190029FF150026FF0095067508FF
:100160008100050819012905950575019102950180
:1001700075039101C005010980A101850319012AB8
:10018000B700150126B700950175108100C0050C58
:100190000901A101850419012AA002150126A00266
:1001A000950175108100C005010906A101850505AD
:1001B0000719E029E7150025019508750181020559
:1001C00007190029EF1500250195F0750181020539
:1001D000081901290595057501910295017503918D
:1001E00001C009023B00020100A0FA09040000015D
:1001F0000301010009211101000122AF000705825E
:100200000320000A09040100010300000009211174
:1002100001000122170007058103200001120100DF
:100220000200000008EDFE37130100010200010E7C
:1002300003470065006F0072006700690000002638
:100240000367002000480065006100760079002007
:100250000049006E0064007500730074007200694C
:1002600000650073000000040309040011241FBE90
:10027000CFEFDAE0DEBFCDBF04B603FE27C080912A
:10028000400290914102A0914202B0914302873016
:10029000904BA740B04BD1F4109240021092410213
:1002A000109242021092430214BE84B7877F84BF2B
:1002B0000FB6F894A89580916000886180936000E3
:1002C000109260000FBEE0E0F8E3099511E0A0E0B5
:1002D000B1E0E6E8FAE202C005900D92AE33B10754
:1002E000D9F722E0AEE3B1E001C01D92A034B2071D
:1002F000E1F70E9435130C9437150C940000E8EDDB
:10030000F0E080818E7F80831092E2001092DA000C
:100310001092E100A0EEB0E08C9181608C9380811E
:100320008F77808319BCA7EDB0E08C918E7F8C9382
:1003300080818F7E808310920E0208952091E400C8
:100340003091E50095E6A9012091EC00822F8170A3
:1003500020FF06C08091E80080FF06C080E008957D
:100360002091E80022FD1AC080913302882389F091
:10037000853089F08091EB0085FD0FC02091E4006D
:100380003091E50042175307F9F29150E1F684E00D
:10039000089582E0089583E0089581E00895EF9242
:1003A000FF920F931F93CF937C018B010E949E01BC
:1003B000C82F811117C08091E80085FD0BC0809186
:1003C000E8008E778093E8000E949E01882399F3CD
:1003D000C82F08C0F70181917F018093F10001507F
:1003E000110949F78C2FCF911F910F91FF90EF903A
:1003F00008958091350287FF13C08091E80082FF45
:1004000006C08091E8008B778093E80004C080915B
:1004100033028111F2CF0895809133028823D9F3FA
:100420008091E80080FFF8CF8091E8008E77ECCFD4
:10043000982F9093E900242F762F50E0891731F000
:100440007091EC002091ED005091F00021FD07C06B
:100450009F5F973071F78093E90081E008953091B4
:10046000EB003E7F3093EB003091ED003D7F309309
:10047000ED003091EB0031603093EB007093EC00B5
:100480002093ED005093F0002091EE0027FDE0CF87
:1004900080E00895CF92DF92EF92FF920F931F9327
:1004A000CF93DF93C8EDD0E088818F7E8883E7ED1E
:1004B000F0E080818160808384E082BF81E080936E
:1004C0000E0288818E7F888302EE10E0F801108290
:1004D0001092DA0081EEC82ED12CF60110828881AC
:1004E0008F77888388818068888388818F7D8883DF
:1004F00019BC109233021092340210923202109200
:10050000310290EEE92EF12CF70180818B7F808300
:1005100088818160888342E060E080E00E94180268
:10052000F60180818E7F8083F801808181608083E5
:10053000808188608083F70180818E7F80838881BD
:1005400080618883DF91CF911F910F91FF90EF9091
:10055000DF90CF900895FC0180913B0290913C0286
:1005600086179707A0F06115710529F49091E800AE
:100570009E779093E80090E06115710551F4911118
:1005800008C08091E80082FF34C080E00895BC017B
:10059000F2CF809133028823C1F18530C1F180917F
:1005A000E80083FD30C08091E80082FDEACF8091B1
:1005B000E80080FFE1CF8091F3002091F200382F16
:1005C0006115710519F02830310558F091E0283097
:1005D000310509F090E02091E8002E772093E800A3
:1005E000CBCF81918093F100615071092F5F3F4F14
:1005F000E7CF80913302882341F0853041F080912C
:10060000E80083FFBECF81E0089582E0089583E093
:10061000089508958091100208959C014FB7F894B1
:100620008091050290910602A0910702B091080204
:100630004FBF821B930B08952FB7F894809105024A
:1006400090910602A0910702B09108022FBF089571
:10065000DF92EF92FF920F931F93CF93DF93F82EC9
:100660000E941C038C0184EAE82E94E8D92E109293
:10067000BC00E092BC000E941C03EC018091BC0015
:1006800087FF0DC08091B900887F8830F9F0809194
:10069000B900887F8031D1F0CFEFDFEF08C00E9432
:1006A0001C038C1B9D0BC29748F3CEEFDFEFC801F4
:1006B0000E940D03883E9340D0F2CE01DF91CF918E
:1006C0001F910F91FF90EF90DF900895F092BB0083
:1006D000D092BC000E941C03EC018091BC0087FFFB
:1006E0000AC08091B900887F883111F08034A1F66A
:1006F000D0E0C0E0E2CF0E941C038C1B9D0BC29790
:1007000060F3D3CFCF93DF938093BB0084E88093D3
:10071000BC000E941C03EC018091BC0087FF0FC04D
:100720002091B900287F81E090E0283211F490E018
:1007300080E0919581959109DF91CF9108950E9474
:100740001C038C1B9D0B883E934030F38EEF9FEF74
:10075000F3CF20910202309103022817390771F07C
:100760009093030280930202E0910002F091010253
:10077000309721F00084F185E02D099408952091AF
:10078000FE013091FF012817390771F09093FF01A6
:100790008093FE01E0910002F0910102309721F078
:1007A0000680F781E02D09940895E0910002F09110
:1007B0000102309721F00190F081E02D099480E052
:1007C000089580E008958238910591F1C0F5813354
:1007D000910509F490C028F58932910509F484C087
:1007E0008A32910509F48EC0811520E5920708F040
:1007F0009EC0811540E4940708F022C18F3B91050B
:1008000008F087C0883A910508F00FC1853A910534
:1008100008F002C18430910500F581309105E9F0BE
:100820003CC08533910509F458C089339105E1F640
:1008300020910902237089F080EE90E00895833EB4
:10084000910571F158F4803E9105E9F0823E9105E1
:1008500059F62091090222FD1EC00895863E910599
:1008600051F1873E910571F1843E910509F0BCCFAD
:1008700020910A0221FFF1CF8091090284FD0DC071
:1008800087EE90E008952091090220FD05C1309186
:100890000A0230FFE2CF24FF02C190E080E0DDCF0A
:1008A0002091090222FDFEC030910A0230FDC4CF22
:1008B00024FFD3CFF2CF2091090223FFCECF24FD16
:1008C000ECCFDECF2091090223FDEFC030910A0268
:1008D00031FFEECF84EE90E008952091090225FFCC
:1008E000BCCF89E290E008952091090225FFB5CFA1
:1008F00085E390E008952091090226FFAECF8AE2B9
:1009000090E008952091090226FFA7CF81E390E0AF
:100910000895803E910508F2883E910508F49DCF28
:100920009C013A9521153F4108F497CFB6CF811528
:1009300023E5920740F5811542E5940708F088C049
:10094000811521E5920708F07EC09C0164E0369590
:1009500027956A95E1F7922F9370282F2695269573
:10096000237040E2249F90011124392B482F4370BB
:1009700081E090E002C0880F991F4A95E2F7822B30
:10098000932B9C680895811549E59407F0F481152F
:1009900028E5920708F06DC0811544E5940708F03A
:1009A0007CCFAC014370552721E030E002C0220F1C
:1009B000331F4A95E2F78695869540E2849FC001F1
:1009C0001124822B932B9A68089581152AE59207AA
:1009D00008F063CF282F2F704091090242FF05C015
:1009E00083FF4CC0282F2770246030910A0230FF0B
:1009F00007C0322F3871383009F046C0277F216098
:100A000044FD277E34E0969587953A95E1F78F70FF
:100A1000982F822F90690895855AE82FF0E0E35FC0
:100A2000FE4F808190E090640895885AE82FF0E0AE
:100A3000EE0FFF1FE05FFE4F808191819464089567
:100A40009F70906A0895982F8827816F906A089503
:100A5000AC014370552721E030E002C0220F331F64
:100A60004A95E2F78695869540E2849FC00111245D
:100A700086CF982F8827806F906A089582FFB5CF20
:100A8000282F2B702860B1CF322F3171313009F00F
:100A9000B7CF2E7F2860B4CF89E390E0089583EE2E
:100AA00090E0089582EE90E0089586EE90E008953B
:100AB0008091880190918701892B90918601892BE3
:100AC00080934101E0910002F0910102309799F08A
:100AD00080910C01882369F08091090287FF09C089
:100AE00085E0809340010280F381E02D80E491E075
:100AF000099481E0F6CF089590910C019923D1F0EB
:100B00009091090297FF16C0E82FE695E695E695C5
:100B1000EE31E0F4F0E0E05CFE4F282F277081E03A
:100B200090E001C0880F2A95EAF780959281892389
:100B300082830895E3E4F1E09191891303C0DF011A
:100B400011971C9291E0E934F907B1F7089590915B
:100B50000C019923C1F09091090297FF14C0E82F6E
:100B6000E695E695E695EE31F8F4F0E0E05CFE4FB0
:100B7000877021E030E001C0220F8A95EAF7828178
:100B8000822B82830895A3E4B1E0EFEF90E02D91F2
:100B9000821751F0EF3F19F4211101C0E92F9F5F37
:100BA0009630A9F7EF3F09F408950E2E000CFF0BC5
:100BB000E05CFE4F838308958F929F92AF92BF9225
:100BC000CF92DF92EF92FF920F931F93CF93DF9319
:100BD00080908D0190908E01A0908F01B090900137
:100BE0004091890150918A0160918B0170918C0133
:100BF000842A952AA62AB72ACFE1D0E0E92EF12C43
:100C00002EE0C22E082F10E0DC2ED501C4010C2EE0
:100C100004C0B695A795979587950A94D2F780FD5D
:100C200011C0219788F7D12C8D2DDF91CF911F9185
:100C30000F91FF90EF90DF90CF90BF90AF909F907B
:100C40008F900895CC9EF001CD9EF00D1124EE0DF5
:100C5000FF1DEE0FFF1FEE0FFF1FE00FF11FEE0F46
:100C6000FF1FE455FF4F859194910E94E303019784
:100C7000C1F2DACF990F990F890F982F9770869547
:100C80008695869525E0829FF0011124ED59FE4F4F
:100C900050E040E080E0219130E0092E02C036951E
:100CA00027950A94E2F721703327042E01C0220F02
:100CB0000A94EAF7822B4F5F5F4F4530510559F791
:100CC0000895990F990F890F982F977041E001C0EF
:100CD000440F9A95EAF786958695869595E0899FC3
:100CE000F0011124ED59FE4F30E020E070E0519109
:100CF000DF011197CB01022E02C0969587950A94C9
:100D0000E2F7817081958527842385278C932F5F57
:100D10003F4F2530310559F7089590E080E00E945B
:100D2000BF0390E080E00E94A90310928701109217
:100D300086010C94580560938D0170938E01809309
:100D40008F01909390010C948D06609389017093AC
:100D50008A0180938B0190938C010C948D068823DB
:100D600041F08095909188018923809388010C94AB
:100D700058050895882339F090918801982B909315
:100D800088010C9458050895882309F452C08238CC
:100D900071F40E94D50381FF4CC089E30E94A7052E
:100DA0000E94580589E30E947C050C9458058338FD
:100DB00059F40E94D50380FF3CC083E50E94A7053B
:100DC0000E94580583E5EFCF843859F40E94D5037B
:100DD00082FF2FC087E40E94A7050E94580587E480
:100DE000E2CF9CEF980F913AF0F290E2980F983092
:100DF00088F4877021E030E0A90102C0440F551F3C
:100E00008A95E2F7CA0180959091880189238093A1
:100E10008801CBCF9BE5980F933020F490E080E0E1
:100E20000C94BF03885A873120F490E080E00C9442
:100E3000A9030895CF93C82F873050F580910A01F8
:100E400090910B01892B11F580E40E942803909367
:100E50000B0180930A01892BB1F482E10E94820385
:100E600090930B0180930A01892B69F481E090E053
:100E700001C0880FCA95EAF780950E94820390937B
:100E80000B0180930A0184E98093BC00CF910895FF
:100E90008A30B1F038F4883069F0893071F0209AE6
:100EA0002898F4CF8C3091F070F08D30C1F73E9AD5
:100EB0004698ECCF219A2998E9CF229A2A98E6CF32
:100EC000239A2B98E3CF529A5A98E0CF539A5B9883
:100ED000DDCF84B1807F84B985B1807F85B93E98AC
:100EE00046988AB1837F8AB98BB1837F8BB9089585
:100EF00080B38D7880BB81B3826781BB0895CF9228
:100F0000DF92EF92FF920F931F93CF93DF93C82F3F
:100F1000873008F090C080910A0190910B01892BD5
:100F200009F094C080E40E94280390930B01809301
:100F30000A01892B09F44BC090E084E98093BC003E
:100F40002C2F30E0F901E753FE4FA081A9279083B1
:100F5000F901EE0FFF1FEE0FFF1FEF56FE4F70E07F
:100F600060E040E0C1E0D0E0CA2ED12C55E0162F61
:100F70008191882309F46CC07F01A1E0EA1AF1088D
:100F80008150D7018C93D60102C0B595A7951A95CB
:100F9000E2F7A0FF05C08F0101501109D8015C9351
:100FA0006F5F7F4F6430710511F729523E4F842FD8
:100FB0008095F901208182239423892BDF91CF91A1
:100FC0001F910F91FF90EF90DF90CF90089583E1F4
:100FD0000E94820390930B0180930A01892B09F0F0
:100FE000ABCF81E40E94280390930B0180930A0108
:100FF000892B09F0A1CF84E88093BC000E941C03D8
:101000008C018091BC0087FF08C09091BB00909537
:1010100010920B0110920A0190CF0E941C03801BBA
:10102000910B883E934068F38EEF9FEF90930B01F6
:1010300080930A0181CF8FB19FB18695817096957B
:10104000969596959E70982B90957ACF90E078CF54
:101050007E01062E01C0EE0C0A94EAF74E2993CFCA
:1010600090913302943031F580930B0270930D020E
:1010700060930C0282E08093E9008FEF9091E8008A
:10108000815095FD06C095ED9A95F1F7000081110C
:10109000F5CF8091E80085FF0DC050E040E063E0AF
:1010A00070E08BE092E00E94CF018091E8008E77A3
:1010B0008093E8000895BC0184E00C943008BC01E2
:1010C00083E00C943008CF93DF93EC0180910C0106
:1010D000882321F08091090260E287FF69E082E0C5
:1010E0008093E9008FEF9091E800815095FD06C054
:1010F00095ED9A95F1F700008111F5CF8091E80008
:1011000085FF19C080910C01811118C050E040E0AA
:1011100068E070E0CE0101960E94CF018091E80066
:101120008E778093E80080E2FE01A1E1B2E00190B9
:101130000D928A95E1F7DF91CF91089570E050E02C
:1011400040E0CE01E9CFCF93C82F882309F4A6C091
:101150008238C1F40E94D50381FDA0C089E30E94BA
:10116000A7050E9458052FEF81EE94E021508040A2
:101170009040E1F700C0000089E30E947C05CF9118
:101180000C9458058338A1F40E94D50380FD86C0D5
:1011900083E50E94A7050E9458052FEF81EE94E099
:1011A000215080409040E1F700C0000083E5E5CF8A
:1011B0008438A1F40E94D50382FD70C087E40E94A8
:1011C000A7050E9458052FEF81EE94E02150804042
:1011D0009040E1F700C0000087E4CFCF8CEF8C0F88
:1011E000813A88F580910C01882301F180910902F0
:1011F00087FF1CC0EC2FE695E695E695F0E0E05CF5
:10120000FE4F828190E04C2F477021E030E002C019
:10121000220F331F4A95E2F782239323892B79F01B
:101220008C2F0E947C050E94580509C0E3E4F1E080
:101230008191C817A9F321E0E934F207C9F78C2F8F
:101240000E94A7059CCF80E28C0F883068F4C7709D
:1012500021E030E001C0220FCA95EAF780918801B1
:10126000822B809388018BCFEBE5EC0FE33040F4C9
:10127000F0E0E35FFE4F808190E0CF910C94BF03DC
:10128000C85AC73158F4EC2FF0E0EE0FFF1FE05FB3
:10129000FE4F80819181CF910C94A903CF91089545
:1012A0000F931F93CF93DF93C62FD42F022FFC01F0
:1012B00082818823A1F060933F020E941C039093D7
:1012C0003E0280933D02C77081E001C0880FCA953D
:1012D000EAF7DF91CF911F910F910C94BA0680919C
:1012E0003F02681338C080913D0290913E020E94F7
:1012F0000D03883C910578F510E21D0FCD17B9F06C
:1013000080E28C0F883040F4C77081E001C0880F04
:10131000CA95EAF70E94AF06183048F481E09D2F85
:10132000977001C0880F9A95EAF70E94BA06802F3D
:101330000E94A308802F0E94C406183098F4D7702A
:1013400081E001C0880FDA95EAF7DF91CF911F9114
:101350000F910C94AF06C77081E001C0880FCA9549
:10136000EAF7F3CFDF91CF911F910F91089580E2BB
:1013700090E090930B0180930A01809161018111AB
:1013800011C01092B9008CE08093B80081E0809386
:1013900061012FEF83ED90E3215080409040E1F711
:1013A00000C0000080E40E94280390930B0180930A
:1013B0000A01892B09F040C080E00E9482039093CB
:1013C0000B0180930A01892BB9F580E80E94820302
:1013D00090930B0180930A01892B71F58FEF0E9486
:1013E000820390930B0180930A01892B29F584E9EC
:1013F0008093BC0080E40E94280390930B018093AB
:101400000A01892BC9F48CE00E94820390930B019E
:1014100080930A01892B81F480E80E9482039093D3
:101420000B0180930A01892B39F48FEF0E9482030C
:1014300090930B0180930A0184E98093BC00809112
:101440000A010895CF9384E090E00E94F514C82F1C
:1014500082E290E00E94F514982F8C2FCF9108958E
:1014600069EE7EEF90E080E00E94211560E082E06E
:1014700090E00E94031560E083E090E00E94031575
:101480001092890110928A0110928B0110928C01A6
:1014900060E084E090E00E94031560E082E290E06A
:1014A0000E94031560E085E090E00E94031560E073
:1014B00086E090E00E9403156FEF87E090E00E94C5
:1014C000031540E050E0BA0188E090E00E94151555
:1014D00060E08DE090E00E94031540E050E0BA012A
:1014E00088E190E00E94151560E087E190E00E949D
:1014F000031540E050E0BA018CE190E00E94151520
:1015000070E060E080E290E00E94211540E050E051
:10151000BA0188E190E00E94151540E050E0BA0160
:101520008FE090E00E94151540E050E0BA0183E1A1
:1015300090E00C9415151092880180910C0188237D
:1015400069F08091090287FF09C0E2E4F1E08EE1D1
:10155000DF011D928A95E9F70C948D06E3E4F1E032
:1015600086E0F6CF1F93CF93DF93CDB7DEB7AA9770
:101570000FB6F894DEBF0FBECDBF85E392E0209199
:10158000F100FC012193CF01F2E08D339F07B9F701
:1015900080913602833009F46FC0B8F4813009F4C9
:1015A00046C0823009F4B0C08091E80083FF7BC25E
:1015B00080913502909136029A3008F074C2E92F7A
:1015C000F0E0E75CFA4E0C94EF148A3009F48BC01B
:1015D0008B3009F46EC0893039F780913502813241
:1015E00019F78091390290913A02892BE9F680919E
:1015F000E800877F8093E8008091E80082FF37C091
:101600009091F3008091F200029729F48091F1000B
:101610008B7F813021F48091F100809310028091C2
:10162000E8008B778093E8000E94F901BDCF80919C
:101630003502813A09F0B8CF8091E800877F809326
:10164000E8008091390290913A02892B61F460E2BE
:1016500081E192E070E00E94AB028091E8008B771C
:101660008093E800A1CF60E090E080E0F3CF80912C
:1016700033028111C1CF98CF80913502813A09F0B0
:1016800093CF8091390290913A02892B09F08CCF47
:101690008091E800877F8093E8008091E80080FFD8
:1016A000FCCF80910C018093F1008091E8008E774F
:1016B000B9CF80913502813209F076CF809139021D
:1016C00090913A02892B09F06FCF8091E800877FD3
:1016D0008093E8000E94F9018091370280930C0109
:1016E0000E949B0A61CF80913502813209F05CCF64
:1016F0008091E800877F8093E8000E94F901809143
:10170000380280930F0250CF80913502813A09F060
:101710004BCF8091E800877F8093E8008091E800BC
:1017200080FFFCCF80910F02BECF803899F08238C5
:1017300009F0B9C1809139028F70873008F0B3C1C8
:101740008093E9008091EB0085FB882780F9109257
:10175000E90006C0809131029091320291118260BD
:101760009091E800977F9093E8008093F1001092A9
:10177000F1008091E8008E7792C1882309F480C13E
:10178000823009F090C180913702811183C180912C
:1017900039028F702FEF280F263008F084C1809314
:1017A000E9002091EB0020FF75C1933031F4809166
:1017B000EB0080628093EB006DC19091EB00906133
:1017C0009093EB0021E030E001C0220F8A95EAF708
:1017D0002093EA001092EA008091EB008860EACF43
:1017E000811161C1109137021F778091E3008078E9
:1017F000812B8093E3008091E800877F8093E8004D
:101800000E94F9018091E80080FFFCCF8091E30005
:1018100080688093E30082E0111183E080933302BB
:1018200042C18058823008F03EC1809137029091C9
:1018300038028C3D23E09207A1F583E08A838AE297
:1018400089834FB7F894DE01139620E03EE051E221
:10185000E32FF0E050935700E49120FF03C0E2959E
:10186000EF703F5FEF708E2F90E0EA30C0F0C796C8
:101870008D939D932F5F243159F74FBF8091E800DE
:10188000877F8093E8006AE270E0CE0101960E94B3
:10189000AB028091E8008B778093E80004C1C0968A
:1018A000E7CF4091390250913A02292F3327233054
:1018B000310509F444C078F52130310509F46FC0D1
:1018C0008BE390E0E2EEF1E02230310509F0EBC06D
:1018D0002091E800277F2093E80020913B0230917F
:1018E0003C028217930708F49C0140E02115310562
:1018F00009F064C0411162C08091E80082FDC9CF47
:1019000080913302882329F2853019F28091E80012
:1019100083FFF2CFBECF21323105A9F1223231054A
:1019200009F0C1C04115510509F443C041305105CA
:1019300009F0B9C087E190E0ECE1F1E0C9CF992767
:1019400081309105C1F0009759F0029709F0ABC0C2
:10195000EFE2F2E0E4918E2F90E0EFE2F2E007C0D8
:10196000E7E6F2E0E4918E2F90E0E7E6F2E0009700
:1019700009F499C0ADCFEFE3F2E0E4918E2F90E04F
:10198000EFE3F2E0F4CF4115510571F0413051051C
:1019900009F089C089E090E0EDE0F2E099CF82E1C2
:1019A00090E0EDE1F2E094CF89E090E0E4EFF1E047
:1019B0008FCF8FEA90E0E3E3F1E08ACF80913302AA
:1019C000882309F466CF853009F463CF8091E8005D
:1019D00083FD5FCF8091E80082FD8ECF8091E8008B
:1019E00080FF84CF9091F3008091F20021153105A2
:1019F00019F08830910550F041E0089709F040E077
:101A00008091E8008E778093E80070CF44914093F6
:101A1000F1003196215031090196E8CF803809F064
:101A200042C08091E800877F8093E8008091340273
:101A30008093F1009ECE811136C010913702123092
:101A400090F58091E800877F8093E800109334023E
:101A50000E94F901112311F084E005C08091E30098
:101A600087FDFACF81E08093330242E261EC82E0AD
:101A70000E94180242E161EC81E00E94180213C04A
:101A800080913702813079F481E0933009F080E071
:101A9000809332021092E9008091E800877F809362
:101AA000E8000E94F9018091E80083FF0AC080915C
:101AB000E800877F8093E8008091EB00806280934C
:101AC000EB00AA960FB6F894DEBF0FBECDBFDF9134
:101AD000CF911F9108958F929F92AF92BF92CF9214
:101AE000DF92EF92FF920F931F93CF93DF93CDB7C7
:101AF000DEB72F970FB6F894DEBF0FBECDBF4B8772
:101B00005C876D877E878F8761111092870185E0E2
:101B1000FE013B96DE01169601900D928A95E1F743
:101B200089859A85892B39F01E810F81812F802329
:101B30008F3F09F078C32F960FB6F894DEBF0FBE23
:101B4000CDBFDF91CF911F910F91FF90EF90DF906C
:101B5000CF90BF90AF909F908F9008950E94DC052A
:101B6000F82E682F89819A810E946106E02FF0E0AB
:101B70002EE0F29EE00DF11D1124EE0FFF1FEE0F7F
:101B8000FF1FE10FF11DEE0FFF1FE455FF4F059101
:101B90001491C80180549A458034910508F475C0A9
:101BA000043F3CE5130709F494C0B0F4093D9CE5FB
:101BB000190709F48AC00A3D2CE5120709F499C0F7
:101BC000083D3CE51307A1F426E241EE61EECE01AB
:101BD00006960E945009AFCF063F8CE5180709F41E
:101BE00080C008F47AC0073F2CE5120709F47DC0D5
:101BF0008885882309F428C310923F0202303CE50F
:101C0000130708F455C106319CE5190738F098010F
:101C10002B5F3C452930310508F04AC10E94220A59
:101C200090930A028093090200312CE5120709F40F
:101C30000EC108F098C008308CE5180709F4F5C00B
:101C400008F06DC004302CE5120709F4E6C008F076
:101C500053C002308CE5180709F4D9C080910902FD
:101C6000826003301C4509F4D5C0609109021091CF
:101C70000A0284E090E00E940315612F82E290E066
:101C80000E9403150E949B0A56CF0054E02FE69550
:101C9000E695E695F0E0EB50FE4F208110E00095D0
:101CA00010950770112781E090E001C0880F0A9518
:101CB000EAF73885332331F0822B808381E08093EB
:101CC000FD0139CF80958223F8CF27E245EE65EEFE
:101CD0007ECF26E241EE60EE7ACF27E245EE64EE5B
:101CE00076CF26E241EE62EE72CF27E245EE66EE57
:101CF0006ECF28E241E0EBCF80910902806106308F
:101D00002CE5120709F486C080910902886007302B
:101D10001C4508F47FC08091090280627BC00C30B2
:101D20008CE5180709F48BC070F4809109028C606F
:101D30000A302CE5120709F46DC008F47AC08091CE
:101D400009028E7F67C00E308CE5180709F47BC04E
:101D5000809109028B7F0F301C4508F45BC0809195
:101D600009028F7E57C00C3F2CE5120709F459C0B9
:101D700030F503318CE5180709F471C078F40131AE
:101D80002CE5120709F467C002311C4509F06DCF3C
:101D90000E949B0A809109028F773CC005318CE537
:101DA000180709F464C008F478C080910A028160C1
:101DB0000B3F1C4509F059CF80930A0256CF0115FD
:101DC0003DE5130709F44FC088F480910A028D7F26
:101DD0000E3F9CE5190781F380910A028E7F0F3F29
:101DE0001C4550F380910A028360E6CF02303DE546
:101DF000130709F45BC008F446C060E003301D45DA
:101E000009F033CF8EE090E00E9403152ECF809131
:101E1000090281608093090228CF809109028460C1
:101E2000F9CF80910A028260C7CF80910902806455
:101E3000F1CF0E949B0A809109028068EBCF8091CC
:101E400009028D7FE7CF80910902877FE3CF8091E0
:101E500009028F7DDFCF809109028F7BDBCF8091DC
:101E60000902837FD7CF80910A028C7FA5CF809112
:101E7000090282FB992790F921E0922790FB82F9D1
:101E800090FB83F9C7CF80910A02982F90959170AB
:101E90008E7F892B90FB81F98FCF0E949B0A9091B6
:101EA0000902892F97FB87F98058B4CF61E0AACF48
:101EB00006312CE5120709F0D2C1809188018A7A97
:101EC00091E009F490E090936201811106C089E2EB
:101ED0000E94A7050E9458052ECE85E3F9CF85E321
:101EE000BBC10E949B0A3FEF84E39CE031508040DD
:101EF0009040E1F700C0000081E08093E00080E2C4
:101F00008093D8001092C9008FE19EE40197F1F709
:101F100000C0000087E090EBDC01809340029093CA
:101F20004102A0934202B093430288E19CE00FB6C5
:101F3000F894A895809360000FBE90936000FFCF47
:101F40000E94300AF8CD812F902F0E943A06F82E79
:101F50009EC1183009F47DC0193009F0BBC19F70D3
:101F6000C12CD12C7601C39404C0CC0CDD1CEE1C1A
:101F7000FF1C9A95D2F7882309F43FC160918D0127
:101F800070918E0180918F01909190016C297D2933
:101F90008E299F290E949B06802F0E94BA069AC113
:101FA000292F2F70F22E907F19F0F294A0EFFA22D1
:101FB0008823C9F0FF2069F080E2800F883010F09C
:101FC00001110BC080918801F82AF09288010E94CB
:101FD0005805802F0E94A3087DC180918701F82AAF
:101FE000F0928701F4CF802F0E94C406FF2009F4ED
:101FF00071C1F094005E083010F0E11008C08091CB
:102000008801F822F09288010E94580563C18091EE
:102010008701F822F0928701F7CF292F2695269580
:10202000237051F0213009F055C1882379F0802FB9
:1020300093700E94A9034EC1882329F0802F9370CA
:102040000E94BF0347C190E080E0FACF90E080E0BB
:10205000F0CF292F237009F065C081113BC1802F7B
:10206000829586958770880F880F402F4F7050E0BB
:1020700070E060E0082E04C0440F551F661F771FF4
:102080000A94D2F7C12CD12C760104FF10C0FFE0D6
:10209000CF2ED12CE12CF12C04C0CC0CDD1CEE1C7D
:1020A000FF1C8A95D2F7C094D094E094F094969552
:1020B00096959370923019F1D8F4809089019090A0
:1020C0008A01A0908B01B0908C01913069F04C296D
:1020D0005D296E297F29CB01BA01682179218A21E6
:1020E0009B210E94A506F6C0482959296A297B2907
:1020F000CB01BA016C297D298E299F29F2CF4C2969
:102100005D296E297F29C0908901D0908A01E090D5
:102110008B01F0908C01CB01BA016C257D258E25B9
:102120009F25DFCF2695882311F0292F21702223A8
:1021300009F4D0C0802F829586958770880F880F0C
:10214000402F4F7050E070E060E0082E04C0440F54
:10215000551F661F771F0A94D2F7C12CD12C760128
:1021600004FF10C0EFE0CE2ED12CE12CF12C04C0E6
:10217000CC0CDD1CEE1CFF1C8A95D2F7C094D094C9
:10218000E094F094969596959370923019F1D8F466
:1021900080908D0190908E01A0908F01B090900161
:1021A000913069F04C295D296E297F29CB01BA0154
:1021B000682179218A219B210E949B068BC0482996
:1021C00059296A297B29CB01BA016C297D298E29DD
:1021D0009F29F2CF4C295D296E297F29C0908D015E
:1021E000D0908E01E0908F01F0909001CB01BA0168
:1021F0006C257D258E259F25DFCF802F0E94AF0681
:10220000C701B6016095709580959095C0908D013D
:10221000D0908E01E0908F01F09090016C217D2193
:102220008E219F21C9CF85E0FE013696DE011196F1
:1022300001900D928A95E1F789819A8161118ECC86
:102240000E943A06F82E92CC06311C4589F4809102
:102250006201811144CE89E20E947C053BCE0115CA
:102260002CE5120709F43DCE0F3D1C4509F468CE5C
:102270001E810F81882309F466CE812F902F0E9442
:10228000DC05F82E682F812F902F0E946106E02F29
:10229000F0E09EE0F99EE00DF11D1124EE0FFF1F0E
:1022A000EE0FFF1FE10FF11DEE0FFF1FE455FF4F73
:1022B000859194910E94E303082FE82E8885192FB9
:1022C00012951F70143009F4A8CE08F042CE1230D7
:1022D00008F466CE212F2850330B2230310510F43C
:1022E0000E94D50385E0FE013696DE01119601902D
:1022F0000D928A95E1F789819A810E943A06EA81D6
:10230000F0E03EE0839FE00DF11D1124CF01880F26
:10231000991F880F991FE981E80FF92FF11DEE0F22
:10232000FF1FE455FF4F8591949105CC0F931F93A8
:10233000CF93DF9380910A0190910B01892B71F06B
:10234000809160018F5F80936001811107C00E94BE
:10235000B70990E090930B0180930A0107ED11E01B
:10236000C0E08C2F0E941A07D7E0DC0F8D2F0E944F
:102370001A078C2F0E947F07F80181938F018D2F00
:102380000E947F07F80186830E946907CF5FC730EC
:1023900041F781E0DF91CF911F910F9108951F9236
:1023A0000F920FB60F9211242F933F934F935F9389
:1023B0006F937F938F939F93AF93BF93CF93DF934D
:1023C000EF93FF93D091E900DF708091EC00C82F6C
:1023D000C17080FDC0E81092E9008091F000877F15
:1023E0008093F00078940E94B20A1092E9008091E4
:1023F000F00088608093F000CD2BCF70C093E9008F
:10240000FF91EF91DF91CF91BF91AF919F918F910C
:102410007F916F915F914F913F912F910F900FBEE0
:102420000F901F9018951F920F920FB60F921124C4
:102430002F933F934F935F936F937F938F939F93CC
:10244000AF93BF93EF93FF938091E10082FF09C0A8
:102450008091E20082FF05C08091E1008B7F809334
:10246000E1008091DA0080FF24C08091D80080FFD5
:1024700020C08091DA008E7F8093DA008091D900AD
:1024800080FF9BC080E189BD82E189BD09B400FE67
:10249000FDCF81E08093330280910E02811109C04B
:1024A0000E947F010E944A028091E2008460809332
:1024B000E2008091E10080FF17C08091E20080FF80
:1024C00013C08091E2008E7F8093E2008091E20051
:1024D00080618093E2008091D80080628093D80070
:1024E00019BC85E0809333028091E10084FF29C00C
:1024F0008091E20084FF25C080E189BD82E189BD31
:1025000089B5982F917080FFFBCF8091D8008F7D87
:102510008093D8008091E1008F7E8093E1008091CC
:10252000E2008F7E8093E2008091E20081608093E0
:10253000E20080913402882309F445C084E080934E
:1025400033028091E10083FF27C08091E20083FF86
:1025500023C08091E100877F8093E10082E0809337
:102560003302109234028091E1008E7F8093E1006B
:102570008091E2008E7F8093E2008091E200806192
:102580008093E20042E060E080E00E9418028091C7
:10259000F00088608093F000FF91EF91BF91AF91C0
:1025A0009F918F917F916F915F914F913F912F916B
:1025B0000F900FBE0F901F90189519BC1092330208
:1025C00010920E0276CF8091E30087FD93E0909306
:1025D0003302B7CF78941F921FB61F9211248F93A6
:1025E0009F93AF93BF938091050290910602A091B3
:1025F0000702B09108020196A11DB11D809305024A
:1026000090930602A0930702B0930802BF91AF9186
:102610009F918F911F901FBE1F9018951F921FB6FC
:102620001F9211248F939F93AF93BF9380910402C5
:10263000811113C08091050290910602A0910702BA
:10264000B09108024196A11DB11D8093050290939F
:102650000602A0930702B0930802BF91AF919F9129
:102660008F911F901FBE1F901895CDB7DEB72A9788
:102670000FB6F894DEBF0FBECDBF84B7877F84BF8F
:102680000FB6F894A89580916000886180936000EF
:10269000109260000FBE80E890E00FB6F89480932F
:1026A0006100909361000FBE85B7806885BF85B7D4
:1026B000806885BF81EE93E090933F0180933E0157
:1026C0000E947F010E944A028091E2008460809310
:1026D000E2007894809133028823A1F01091E90000
:1026E0001F709091EC00892F817090FD80E8182B6D
:1026F0001092E9008091E80083FD0E94B20A1F70E9
:102700001093E90082E084BD93E095BD9AEF97BDF8
:1027100080936E000E94B70990E090930B01809324
:102720000A010E9469070E94780789EC91E0E1E9BB
:10273000F1E047ED51E0DA011D92AD01DC011D929F
:10274000CD0110821182128213823496B1E0453E8F
:102750005B0789F790E080E00E94FD14893E9E4F60
:1027600011F00E94300A82E090E00E94F5148093FC
:10277000E6010E94220A90930A028093090283E0F4
:1027800090E00E94F514682F70E090E080E00E94D5
:10279000A5063F988AB18F708AB96E98479A8BB117
:1027A000806F8BB9769A6091090260686093090224
:1027B00010910A0284E090E00E940315612F82E2EA
:1027C00090E00E94031580E091E0909301028093D5
:1027D000000288E1C82ED12C90E4992E20E1A22E8F
:1027E00032E1B32EEE24EA9480913302853049F42D
:1027F00080913302853009F479C00E949B0A0E94BF
:10280000D5030E949611882359F08FB7F894409110
:1028100005025091060260910702709108028FBF75
:10282000E7EEF1E0A7EDB1E010E000E0302F8D9190
:102830009191981709F4A7C0292F282790E0FF2429
:10284000F3944F2D422309F499C099833A838F2141
:1028500091E009F490E09B830E941C038160782F33
:102860009D838C8349815A816B818D810E946B0D80
:10287000F801E951FE4F8081F826F0820E94D503CD
:102880009091E501891721F00E94D5038093E5011D
:1028900080913302843009F0A7CF8091FD01882315
:1028A00009F4A2CF1091E9001F709091EC00892FDC
:1028B000817090FD80E8182B81E08093E900809181
:1028C000E80080FF0FC050E040E068E070E085EF76
:1028D00091E00E94CF018091E8008E778093E8001C
:1028E0001092FD011F701093E9007ECF809133029A
:1028F000843009F1109204020FB6F894A895C092A2
:1029000060000FBE9092600083B7817F846083BFB8
:1029100083B7816083BF7894889583B78E7F83BFA8
:102920000FB6F894A895809160008861809360004C
:10293000109260000FBE80913202882309F458CFB4
:102940000E94B70990E090930B0180930A010E94C6
:1029500069070E947807E7EDF1E0119281E0E53E1A
:10296000F807D9F70E949611E7EDF1E08191811106
:1029700020C0A1E0E53EFA07C9F73ACF9F5FFF0C00
:10298000943009F05ECF0F5F1F4F0E30110509F034
:102990004DCFEE82EF8218860E941C038160782F53
:1029A0009A8789874E815F8168858A850E946B0D31
:1029B00065CFA9BCB9BC09B400FEFDCF8091D80099
:1029C0008F7D8093D8008091E00082608093E0004A
:1029D0008091E00081FDFCCF0E949B0A09CFEE0FA1
:1029E000FF1F0590F491E02D0994F999FECF92BD57
:1029F00081BDF89A992780B50895A8E1B0E042E03A
:102A000050E00C942915262FF999FECF92BD81BD77
:102A1000F89A019700B4021639F01FBA20BD0FB61C
:102A2000F894FA9AF99A0FBE08950396272F0E94F8
:102A300004150E940315252F0E940415242F0C94C1
:102A400004150196272F0E9404150C940315DC0130
:102A5000CB01FC01F999FECF06C0F2BDE1BDF89AA9
:102A6000319600B40D9241505040B8F70895F89453
:102A7000FFCF950BBD0B530DBD0B530DF00B110C80
:062A8000530D0E0D1B0DAD
:102A86000A03630809035F085B082000018182834B
:102A9600E200E900EA00B500B600B700CD00830108
:102AA600CC008A019201940121022302240225020C
:0E2AB600260227022A02B300B4006F0070004F
:00000001FF
