:100000000C9416010C945D010C945D010C945D013F
:100010000C945D010C945D010C945D010C945D01E8
:100020000C945D010C945D010C9483190C94571A87
:100030000C94AE140C945D010C945D010C945D0164
:100040000C945D010C945D010C945D010C945D01B8
:100050000C945D010C9405150C945D010C945D01EC
:100060000C945D010C945D010C945D010C945D0198
:100070000C945D010C945D010C945D010C945D0188
:100080000C945D010C945D010C945D010C945D0178
:100090000C945D010C945D010C945D010C945D0168
:1000A0000C945D010C945D010C945D014D5A4E5A07
:1000B0004F5A505A515A525A535A545A555A565ADC
:1000C000575A595A5A5A5B5A5C5A5D5A5E5A5F5A85
:1000D000605A615A625A635A00000000405A655AD9
:1000E000665A675A685A415A00000000000010031F
:1000F000540068006500200055006E006900000093
:100100001E037300740065006E006F006B006500D5
:10011000790062006F0061007200640073000000EB
:100120000403090409025400030100A0FA090400B1
:100130000001030101000921110100012240000713
:1001400005810308000A09040100010300000009F9
:100150002111010001222600070582032000010968
:100160000402000103000000092111010001223BEB
:10017000000705830320000A1201000200000008A6
:10018000009001000200010200010650FF0A564CD7
:10019000A102850125017501954005091900293F36
:1001A0008102850226FF0075081900293F8102C0DF
:1001B00005010906A1018505050719E029E71500D4
:1001C00025019508750181020507190029EF150021
:1001D000250195F07501810205081901290595058C
:1001E00075019102950175039101C005010906A1F0
:1001F00001050719E029E71500250195087501811A
:10020000029501750881010507190029FF150026CF
:10021000FF00950675088100050819012905950557
:1002200075019102950175039101C00011241FBE53
:10023000CFEFDAE0DEBFCDBF04B603FE27C080916A
:10024000150290911602A0911702B0911802873002
:10025000904BA740B04BD1F41092150210921602A9
:10026000109217021092180214BE84B7877F84BFC1
:100270000FB6F894A8958091600088618093600023
:10028000109260000FBEE0E0F8E3099511E0A0E0F5
:10029000B1E0E0E1F9E302C005900D92A433B107AB
:1002A000D9F722E0A4E3B1E001C01D92A531B20765
:1002B000E1F70E9422110C945E1C0C94000081E076
:1002C000089581E008950C94610108950C946501EE
:1002D0001F93CF93DF9300D000D00F92CDB7DEB73E
:1002E00049835A836B833091360189819A81311118
:1002F0001DC06623B9F02223A9F00E944307182FDE
:10030000682F89819A810E94EF0669817A81812F05
:100310000F900F900F900F900F90DF91CF911F9142
:100320000C94980D0E941B07182FEFCF0E944307D3
:1003300069817A81EDCFFC01262F40815181628154
:10034000738184810C94680181E00895CF93DF93D9
:10035000EC0160E00E949B01BE01DF91CF910C9403
:1003600066010E949D0F0E9428020C94C20F0C94FB
:10037000C50F08950E9498050E94B9012FEF84E3EC
:100380009CE0215080409040E1F700C000000C94B8
:1003900029150F931F93CF93DF938C0161E00E9487
:1003A0009B01EC01B8010E9463018823D9F1B801D7
:1003B000CE010E942D118823A9F1B801CE010E941F
:1003C000A811882379F1B801CE010E94FA1188237F
:1003D00049F1B801CE010E941D13882319F1F801DB
:1003E0008281882361F0CB35FDE5DF0721F170F4D0
:1003F000C115ECE5DE07A1F0CF3DDC45C9F0C80131
:10040000DF91CF911F910F910C945F01CC358DE559
:10041000D807A1F0CD35DD4591F70E94200BEFCF35
:100420000E94BA0180E0DF91CF911F910F91089552
:100430000E94970CF7CF0E94290BE1CF0E942C0B52
:10044000DECF08950C94210281E008950C942402DB
:100450000895CF93C82F0E9422028C2FCF910C9425
:100460002602CF93DF93CDB7DEB72B970FB6F89464
:10047000DEBF0FBECDBF4F83588769877A878B87D2
:1004800061110E944F0B1E821D8285E0FE0137968E
:10049000DE01119601900D928A95E1F78C819D8184
:1004A000892B89F449815A816B817C818D819E8160
:1004B0000E944F0A2B960FB6F894DEBF0FBECDBF39
:1004C000DF91CF91089589819A8189238F3F51F3DC
:1004D000CE0101960E94A4018111E4CFEBCFFC0173
:1004E000808191810C948507CF93C82F882309F4CC
:1004F00069C08238C1F40E944C1381FD63C089E356
:100500000E94E90A0E947F0B2FEF81EE94E02150B8
:1005100080409040E1F700C0000089E30E94F00AAB
:10052000CF910C947F0B8338A1F40E944C1380FD73
:1005300049C083E50E94E90A0E947F0B2FEF81EEFC
:1005400094E0215080409040E1F700C0000083E536
:10055000E5CF8438A1F40E944C1382FD33C087E4B8
:100560000E94E90A0E947F0B2FEF81EE94E0215058
:1005700080409040E1F700C0000087E4CFCF8CEFCF
:100580008C0F813A90F46C2F8091000190910101C1
:100590000E94B213882329F08C2F0E94F00A0E9437
:1005A0007F0B8C2F0E94E90ABBCF80E28C0F883032
:1005B00048F4C77081E001C0880FCA95EAF70E942D
:1005C000320BAECFCF910895882309F44BC0823807
:1005D00071F40E944C1381FF45C089E30E94E90A2F
:1005E0000E947F0B89E30E94F00A0C947F0B8338F2
:1005F00059F40E944C1380FF35C083E50E94E90A3C
:100600000E947F0B83E5EFCF843859F40E944C138E
:1006100082FF28C087E40E94E90A0E947F0B87E4DA
:10062000E2CF9CEF980F913AF0F290E2980F983059
:1006300050F4877091E001C0990F8A95EAF7892FED
:100640000E94380BD2CF9BE5980F933020F490E0B6
:1006500080E00C947213885A873120F490E080E097
:100660000C94881308951F93CF93DF93182FEB01F9
:100670000E947402209731F4812FDF91CF911F9156
:100680000C94E4028FE99FE00197F1F700C00000AD
:100690002197F0CF70E060E0893311F460E570E0FD
:1006A0000C943303882321F00E94320B0C947F0BAF
:1006B0000895882321F00E94380B0C947F0B089535
:1006C000BF92CF92DF92EF92FF920F931F93CF933F
:1006D000DF936C01D62FC72FFC0102811581129583
:1006E0001F700E94070BE82E8823A1F0E02E002344
:1006F00089F08C2F807F803429F080E28D0FE12CEF
:10070000883040F082E00E94D00B0E94070B91E0FD
:10071000E82EE926BC2EB2949FE0B922EB2DF0E042
:10072000E05AF34E0C94091C1C2F1F70C07F11F06F
:100730001295107F0023A9F0112359F080E28D0F4C
:10074000883010F0D11109C0812F0E94320B0E9415
:100750007F0B8D2F0E94740214C0812F0E94420BC8
:10076000F6CF8D2F0E94E402112359F080E28D0F05
:10077000883010F0D1112CC0812F0E94380B0E94BC
:100780007F0B2B2D2850330B2430310520F40E9491
:100790004C130E942902EE2009F477C10E94030B3A
:1007A00080FD73C1F60112820E94FD0A0E94530669
:1007B000C6010E9466050E94FD0ADF91CF911F913C
:1007C0000F91FF90EF90DF90CF90BF900C94740644
:1007D000812F0E94480BD3CFFC2FFF70FF2EC07FCC
:1007E000C03219F0F29480EFF822DD2369F0D130A5
:1007F00049F1002391F1112351F1F601858180FF28
:10080000A8CF8F70858323C0002381F0111106C00B
:100810000E94620B8F290E945203B3CF1130C1F79F
:100820000E94620B8F290E94680BABCF111106C08A
:100830000E94750B8F2D0E945903A3CF113009F42C
:10084000A0CFF6CF002329F0163008F09ACF8F2DD5
:10085000E2CF153008F095CFEDCF112359F3D933FE
:1008600049F4FFEF27EE33E0F15020403040E1F74C
:1008700000C000008D2F0E94E40283CF8C2F837074
:1008800009F041C001117DCF4D2F4295469547702B
:10089000440F440F0D2F0F7010E030E020E0042EC5
:1008A00004C0000F111F221F331F0A94D2F760E00B
:1008B00070E0CB01D4FF0FC06FE070E080E090E00B
:1008C00004C0660F771F881F991F4A95D2F760955D
:1008D000709580959095C695C695C370602B712BC9
:1008E000822B932BC23049F058F4C13019F00E948A
:1008F000050647CF0E94F30544CF0E94170641CF5B
:100900000E94F1053ECF8695002311F08C2F817057
:10091000882309F436CF4D2F429546954770440FF2
:10092000440F0D2F0F7010E030E020E0042E04C0C3
:10093000000F111F221F331F0A94D2F760E070E0EE
:10094000CB01D4FF0FC06FE070E080E090E004C006
:10095000660F771F881F991F4A95D2F7609570958B
:1009600080959095C695C695C370602B712B822B90
:10097000932BC23049F058F4C13019F00E94CA06D6
:1009800000CF0E94B806FDCE0E94DC06FACE0E947F
:100990002D06F7CECF70002329F08C2F0E9453062E
:1009A0008D2F39CF8D2F0E9459038C2F0E947406F2
:1009B000E8CED23F89F160F4D03FC9F0D13F29F1B0
:1009C000002309F442C01111C4CE8C2F8F7121C0B5
:1009D000D33F39F1D43FA1F7002369F1CF718C2FB8
:1009E0000E94530663E08C2F0E94B50BCACE0023F1
:1009F00041F0153008F0C5CE8C2F8F710E949706FC
:100A0000C0CE163008F0BDCEF7CF8C2F8F710023EB
:100A100069F20E945306B5CE8C2F8F710023C9F363
:100A2000C5CF002329F08C2F8F710E943E06A9CEDE
:100A30000E943906A6CE81E00E94D00B123008F445
:100A4000A0CE82E00E94D00B9CCE112359F0D93366
:100A500009F010CF8FEF97EEE3E081509040E04037
:100A6000E1F706CF8C2F8F71A1CF4C2F4F706D2FD8
:100A7000C6010E94940D0E94B30783CE4C2F4F7085
:100A80006D2FC6010E94970D7CCEDF91CF911F91F3
:100A90000F91FF90EF90DF90CF90BF9008950F934C
:100AA0001F93CF93DF93EC01688179818A810E9443
:100AB0008F078C010E94EE060E94F005B801CE015E
:100AC000DF91CF911F910F910C946003CF93DF932F
:100AD000EC018B819C81892B29F088819981892364
:100AE0008F3F59F4DF91CF910895CE010E944F05B9
:100AF000CE01DF91CF910C94A601CE010E94C901D5
:100B00008111F3CF0E94070B882361F38A81882328
:100B100049F382E0DF91CF910C94D00B0E944F0BF0
:100B20000E945F0B0C947F0B0E94F70A0C948E05B9
:100B30000E943F0B0C949405E92FE295EF70E25070
:100B4000EE3070F4F0E0E059F34E0C94091C803F55
:100B500019F020F4883E20F481E00895843FE1F309
:100B600080E00895883EC0F3813FD1F7F5CF93FB35
:100B7000882780F90895FC01808191810E94850772
:100B80000C949C05CF93DF9300D000D00F92CDB78B
:100B9000DEB70F900F900F900F900F90DF91CF91D5
:100BA0000895CF93DF9300D000D000D0CDB7DEB74B
:100BB00026960FB6F894DEBF0FBECDBFDF91CF9162
:100BC000089508950C94E1050E94E2056093540194
:100BD0007093550180935601909357010C948E05A4
:100BE00008950C94E4050F931F9300915401109104
:100BF00055012091560130915701602B712B822BAA
:100C0000932B1F910F910C94E4050F931F93009168
:100C100054011091550120915601309157016023E4
:100C20007123822393231F910F910C94E4050F935A
:100C30001F9300915401109155012091560130915C
:100C4000570160277127822793271F910F910C94DA
:100C5000E4050C94E1050C9429060E942B06609390
:100C600050017093510180935201909353010C9461
:100C70008E0560E070E0CB010C942D060F931F935E
:100C800041E050E060E070E08A019B0104C0000F89
:100C9000111F221F331F8A95D2F7C901B8011F9176
:100CA0000F910C942D060F931F9341E050E060E0EC
:100CB00070E004C0440F551F661F771F8A95D2F756
:100CC0008091500190915101A0915201B091530136
:100CD0008A019B01082B192B2A2B3B2BC901B80138
:100CE0001F910F910C942D060F931F9341E050E03C
:100CF00060E070E004C0440F551F661F771F8A959F
:100D0000D2F7CB01BA0160957095809590950091CE
:100D100050011091510120915201309153016023F3
:100D20007123822393231F910F910C942D060F930F
:100D30001F9341E050E060E070E004C0440F551F95
:100D4000661F771F8A95D2F78091500190915101CB
:100D5000A0915201B09153018A019B0108271927E4
:100D60002A273B27C901B8011F910F910C942D062A
:100D70000F931F9300915001109151012091520146
:100D800030915301602B712B822B932B1F910F916C
:100D90000C942D060F931F93009150011091510157
:100DA00020915201309153016023712382239323B8
:100DB0001F910F910C942D060F931F9300915001DA
:100DC00010915101209152013091530160277127F8
:100DD000822793271F910F910C942D0608952BE0E5
:100DE000929F800D1124982F977041E001C0440F0D
:100DF0009A95EAF786958695869595E0899FF00104
:100E00001124E95CFE4F90E080E070E05191DF0139
:100E100011979B01082E02C0369527950A94E2F798
:100E2000217021952527242325272C930196853091
:100E3000910561F708952BE0929F800D1124982F62
:100E4000977086958695869525E0829FF0011124FE
:100E5000E95CFE4F50E040E080E0219130E0092E57
:100E600002C0369527950A94E2F721703327042EA5
:100E700001C0220F0A94EAF7822B4F5F5F4F453083
:100E8000510559F70895BF92CF92DF92EF92FF92EA
:100E90000F931F93CF93DF938C01C0905001D0909C
:100EA0005101E0905201F0905301809154019091D2
:100EB0005501A0915601B0915701C82AD92AEA2AB2
:100EC000FB2ACFE1D0E0BC2ED701C6010C2E04C016
:100ED000B695A795979587950A94D2F780FD0EC091
:100EE000219788F7B12C8B2DDF91CF911F910F9116
:100EF000FF90EF90DF90CF90BF900895B8018C2FB6
:100F00000E94A50E019761F3EECFCF93DF93EC0122
:100F10000E944307BE01DF91CF910C94A50E1F9351
:100F2000CF93DF93EB0190913601992331F0CB0100
:100F3000DF91CF911F910C948507882379F0CB0125
:100F40000E944307182F682FCE010E94EF06BE01B2
:100F5000812FDF91CF911F910C94A50ECB010E94A0
:100F60001B07182FF4CFEF92FF920F931F93CF938D
:100F7000DF938C01892B81F0F12CEE24E394E801BE
:100F80002196F8018491843770F4843008F05FC0B2
:100F90008130B1F08230A1F1DF91CF911F910F919B
:100FA000FF90EF900895853709F44CC008F43DC0D8
:100FB0009CE7980F903780F78F770E94E40249C032
:100FC0000E5F1F4FFE01849190E2980F983060F4FD
:100FD0008770FE2D01C0FF0F8A95EAF78F2F0E94C0
:100FE000520B0E947F0B02C00E9474028F2D815011
:100FF00030F2EFE9FFE03197F1F700C00000F7CFE2
:101000000E5F1F4FFE01849190E2980F983050F4CC
:101010008770FE2D01C0FF0F8A95EAF78F2F0E947F
:10102000580BDFCF0E94E402E1CF0E5F1F4FFE019D
:10103000C491C150D8F28FE99FE00197F1F700C049
:101040000000F7CF0E5F1F4FFE01F490CFCF0E943C
:1010500074028E01CBCF1F93CF93DF93C0915801C1
:1010600016E0809159018C1304C0DF91CF911F913C
:101070000895D0E01C9FF0011D9FF00D1124E65A49
:10108000FE4F4081518162817381848195810E94EC
:10109000D1052196C770E5CF40918A0150918B010F
:1010A00060918C0170918D0180918E0190918F01E2
:1010B0000C94D1051F93CF93DF9380918F01807F94
:1010C000A9F480918C01882389F080915801C09106
:1010D000590160918A0170918B01A0918D01B091AD
:1010E0008E01D62FD72316E0C81304C0DF91CF910D
:1010F0001F91089590E0109711F0DF3F19F40196C9
:101100008770F2CF189F9001199F300D1124F901BB
:10111000E65AFE4F41814713F2CF40814613EFCF8D
:1011200042814111ECCF438154814A1B5B0B483C07
:10113000510528F780918F018F70806180938F0116
:10114000F901E15AFE4F80818F70806180838AE8C7
:1011500091E00E946605DF91CF911F910C942B08BE
:10116000AF92BF92CF92DF92EF92FF920F931F93B5
:10117000CF93DF93CDB7DEB761970FB6F894DEBF9C
:101180000FBECDBF8C0185E0F801DE011D960190F8
:101190000D928A95E1F7F801E2808AE8C82E81E095
:1011A000D82E60918D0170918E016115710509F441
:1011B0005AC190918A0120918B01892F82238F3F00
:1011C00009F451C140815181A380B480F0908C0119
:1011D000F501E61BF70BFF2009F4F6C080918F01A3
:1011E000382F307FE83CF10508F0AFC0311179C0ED
:1011F000FE2C251323C0941321C0E1101FC08F7053
:10120000806180938F010E944C08C6010E94660590
:1012100080918F01F80185838F2D61960FB6F89428
:10122000DEBF0FBECDBFDF91CF911F910F91FF9019
:10123000EF90DF90CF90BF90AF900895AB2829F04A
:10124000842F85238F3F09F027C180E0F82FF170AC
:10125000DF2E80FF3CC0809158012091590136E07B
:10126000821315C04D875E878D859E850E948507F8
:10127000292F22952F702230F0F0243018F59F701E
:10128000F1F0F8019581907FD1F4D12C1EC090E04F
:10129000389FF001399FF00D1124E65AFE4F61810D
:1012A000651306C06081641303C06281E6120FC03B
:1012B00001968770D5CF9F7011F0882331F3805E3F
:1012C000883018F3C8010E946605FD2CA5CFEE20DA
:1012D00009F4A2CF80918F01816080938F01F12C5E
:1012E0009BCF251306C0941304C0F801EE2009F427
:1012F00087C0C8010E94BB05882319F1EE2009F1BF
:1013000080918F01803270F020918A0130918B01A1
:1013100038872F831986BB86AA868C87CE010796CD
:101320000E94660586E0F801AAE8B1E001900D92FE
:101330008A95E1F70E945A080E944C08FF24F39412
:101340006BCFC8010E946605F9CF311113C07A2D09
:10135000B98AA88A6E2D89890E94C2058AE891E01F
:101360000E94660586E0F60111928A95E9F70E94CF
:101370004C08B5CF25130FC094130DC0E1100BC05E
:10138000F8018583C8010E94660586E0F601119286
:101390008A95E9F741CFC8010E94BB05882389F2ED
:1013A000EE2079F280918F01803208F4BBCF20913A
:1013B0008A0130918B013A8329831B82BD82AC82E2
:1013C0008E83CE010196ACCFE83CF10508F03EC01B
:1013D000FE2CEE2009F4B5CF25132AC0941328C0A3
:1013E00080918F0180FD1BC0982F907FC1F0F80184
:1013F0008583903F31F0982F907F905F8F70892B7D
:101400008583C8010E94660586E0F801AAE8B1E07C
:1014100001900D928A95E1F70E944C08FDCE86E07E
:10142000F801AAE8B1E001900D928A95E1F7F4CEB7
:10143000C8010E94BB05811175CF80918F01816029
:1014400080938F01C8010E946605E6CE7A2DB98A85
:10145000A88A6E2D89890E94C20586E0F601119244
:101460008A95E9F7D9CFEE2009F46BCFC8010E9425
:10147000BB05F82E882309F464CF86E0F801AAE8BA
:10148000B1E001900D928A95E1F78AE891E00E941F
:101490006F020E945A08C0CF81E08E25D7CE1F93DD
:1014A000CF93DF93CDB7DEB72C970FB6F894DEBF9E
:1014B0000FBECDBF4F83588769877A878B879C87FC
:1014C000CE0107960E94B008882369F08A859B8523
:1014D000892B39F04F815885842F85238F3F09F060
:1014E00071C016E05FC086E0FE013796DE011196FE
:1014F00001900D928A95E1F78A859B85892B89F366
:101500008F81988589238F3F61F32091590130E0C5
:10151000C90101968770992740915801481719060B
:1015200071F40E949805109259011092580186E0BA
:10153000EAE8F1E0DF011D928A95E9F7D2CF96E063
:10154000929FD001939FB00D1124A65ABE4FFE0169
:10155000319601900D929A95E1F7809359010E947E
:101560002B08BFCF819FC0011124865A9E4F0E9435
:10157000B0088823E9F0E09158011E9FF001112482
:10158000E65AFE4F40815181628173818481958149
:101590000E94D1058091580190E0019687709927AB
:1015A0008093580180915801909159018913DACFA5
:1015B0002C960FB6F894DEBF0FBECDBFDF91CF9152
:1015C0001F91089569857A858B859C850E94D10538
:1015D00088CF682F80910001909101010C94321402
:1015E000682F80910001909101010C943D1480912D
:1015F0000001909101010C9448148091900185950F
:1016000085958595089580919001877008959091B2
:101610009001977081E009F480E008959091F701BE
:1016200092FB222720F9281751F080FB92F9909322
:10163000F7018091F6019091F7010C94130C089535
:101640008091F70182FB882780F991E089270C942B
:101650000E0B81E00C940E0B80E00C940E0B80912D
:10166000B40108959091B401892B8093B401089539
:1016700080959091B40198239093B40108951092AD
:10168000B40108959091B301892B8093B30108951B
:1016900080959091B30198239093B301089510928F
:1016A000B30108959091B201892B8093B2010895FE
:1016B00080959091B20198239093B2010895109271
:1016C000B201089580919101089508950C94650BDD
:1016D0009091F70192FD08C090919101981721F027
:1016E000809391010C94660B089580919101882359
:1016F00029F01092910180E00C94660B0895E0911E
:101700000001F09101018091B4018083E09100011A
:10171000F091010180819091B301892B8083E09148
:101720000001F091010180819091B201892B8083A9
:1017300090919101992381F0E0910001F0910101D4
:101740008081892B808380910001909101010E940A
:101750009E1381110E94750B8091000190910101EF
:101760000C94581308950C94B20B9091F70192FDCC
:1017700010C098E0899F90011124622B6093900122
:101780000E945306809190018595859585950C94CE
:10179000B30B0C9453061092900180E00C94B30BA1
:1017A000909190018095892380939001282F277034
:1017B00039F4282F082E000C330B9217130621F44E
:1017C0009091F70192FF07C08595859585950E94B8
:1017D00074060C94CB0B08956FEF7FEF90E080E0E0
:1017E0000C94481C90E080E00E94241C21E0893E7B
:1017F0009E4F09F020E0822F089582E090E00C9443
:101800001C1C83E090E00C941C1CCF9384E090E0BF
:101810000E941C1CC82F82E290E00E941C1C982F82
:101820008C2FCF910895CF93C92F682F84E090E03B
:101830000E942A1C6C2F82E290E0CF910C942A1C0B
:10184000AB01BC018FE090E00C943C1CAB01BC01EF
:1018500083E190E00C943C1C60E070E0CB010C94C0
:10186000260C60E070E0CB010E94200C0C942C0C44
:1018700069EE7EEF90E080E00E94481C60E082E02C
:1018800090E00E942A1C60E083E090E00E942A1C05
:101890001092540110925501109256011092570166
:1018A00060E084E090E00E942A1C60E082E290E028
:1018B0000E942A1C60E085E090E00E942A1C60E003
:1018C00086E090E00E942A1C6FEF87E090E00E9483
:1018D0002A1C40E050E0BA0188E090E00E943C1CE5
:1018E00060E08DE090E00E942A1C40E050E0BA01E8
:1018F00088E190E00E943C1C60E087E190E00E945B
:101900002A1C40E050E0BA018CE190E00E943C1CAF
:1019100070E060E080E290E00E94481C40E050E00F
:10192000BA0188E190E00E943C1C0C94310C0C94AC
:10193000380C682F8EE090E00C942A1C0E94EA1468
:101940006093C0017093C1018093C2019093C30161
:101950006093BC017093BD018093BE019093BF0161
:10196000089585B7806885BF85B7806885BF08956D
:10197000089508950C94B80C08950C94BC0C0E9422
:10198000B10C83E89FE00E944D150E94B90C0C94A5
:10199000BA0C81E008950C94C90C089508950E9432
:1019A000CD0C0C94CE0C0E94D5140E948110E6EF51
:1019B000F1E08081806880838091F6019091F70149
:1019C0000E94130C0C94BD0C8F929F92AF92BF9209
:1019D000CF92DF92EF92FF920F931F93CF93DF93FB
:1019E000CDB7DEB72A970FB6F894DEBF0FBECDBFD6
:1019F0000E949D1081110E949E0C56EB852E51E095
:101A0000952E10E000E0A02E802F0E94C70F6C01E1
:101A1000F401E190F1904F01E816F90609F45AC07B
:101A20008091C40181FD0E94D00FC7018C259D25A6
:101A3000B12CEE24E394F12C9C012E213F21232B89
:101A400009F442C00E94CB0C8823A9F0BE82AF8269
:101A5000CE20DF2081E0CD2809F480E088870E9435
:101A6000DE148160782F9A8789874E815F8168852F
:101A70008A850E943102000F111FF801EA54FE4FBF
:101A800080819181E826F926F182E0820E944C1340
:101A90009091B5018917A9F10E944C138093B5016B
:101AA0002A960FB6F894DEBF0FBECDBFDF91CF915F
:101AB0001F910F91FF90EF90DF90CF90BF90AF906C
:101AC0009F908F900C942902B394EE0CFF1CFBE0C6
:101AD000BF12B2CF0F5F1F4F0330110509F093CF34
:101AE0008FEF89838A831B820E94DE148160782FA6
:101AF0009D838C8349815A816B818D810E94310243
:101B0000C5CF2A960FB6F894DEBF0FBECDBFDF91CA
:101B1000CF911F910F91FF90EF90DF90CF90BF90EA
:101B2000AF909F908F90089590E080E00895089581
:101B3000972F70E02BE0929F600D711D1124FB0127
:101B400091E2899FE00DF11D1124EE0FFF1FE45576
:101B5000FF4F859194910895FC01EE0FFF1FE25114
:101B6000FF4F859194910895CF93DF930E94A90E22
:101B7000EC01811521E59207D0F5811530E5930739
:101B800008F096C081159042F8F4C11581E0D8079D
:101B9000B8F4C03ED10588F4C03CD10508F07BC044
:101BA000C130D10569F0209759F0CE010497813AF0
:101BB000910530F0D0E0C0E003C0C83ED105D0F7B9
:101BC000CE01DF91CF910895C11590E4D90708F0B7
:101BD0006CC0CE019F70C11520E3D20708F45EC02F
:101BE000CE019927D3FF5EC0EC01D86CE9CF8115F7
:101BF00035E5930700F5811544E5940708F08DC09D
:101C0000C11583E5D80708F074C0C11592E5D9075E
:101C100008F46AC0CE018370992721E030E002C049
:101C2000220F331F8A95E2F7C695C69580E2C89FBA
:101C3000E001112455C0811529E59207A0F4811512
:101C400038E5930708F06EC0811546E5940708F063
:101C5000B1CF0E94400FC82FD0E0DC2FCC27CC277B
:101C6000DF71D062ADCFC1158AE5D80708F45FC037
:101C7000CE0190568115904208F09CCF8D2F8F7128
:101C80000E94400F90E0982F882788279F719C0121
:101C90002C2BE901E6CFCE01805C91090E94AC0DAE
:101CA000EC018ECFEC01D06C8BCFDF70D06A88CF87
:101CB000E4E096958795EA95E1F783702C2F2695B9
:101CC0002695237040E2249F90011124382B8C2FFD
:101CD0008370C1E0D0E002C0CC0FDD1F8A95E2F72F
:101CE000C22BD32BDC686CCFDC2FCC27C16FD06A22
:101CF00067CFCE018370992721E030E002C0220F28
:101D0000331F8A95E2F7C695C69590E2C99FE00118
:101D10001124C22BD32BDA6853CFD82FCC27C46F12
:101D2000D06A4ECFD82FCC27C06FD06A49CF8C2F26
:101D30008F700E94400F34E0D695C7953A95E1F731
:101D4000CF709C2FEC01D0693BCF0E94980D0C9472
:101D5000B40D82389105B1F1B0F48133910509F4E5
:101D600075C048F48932910509F469C08A32910539
:101D700009F473C008958533910509F459C0893376
:101D8000910501F10895833E9105A9F138F4803E53
:101D90009105F9F0823E910549F10895863E91053D
:101DA000A9F1873E9105C9F1843E910519F520916D
:101DB000F70121FF1FC08091F60184FD14C087EE5A
:101DC00090E008952091F6012370A1F080EE90E05C
:101DD00008952091F60120FD47C03091F70130FFB2
:101DE00009C024FF44C090E080E004C02091F601C7
:101DF00022FDF7CF08952091F60122FD3BC03091DE
:101E0000F70130FDE3CF24FFF5CFEDCF2091F601B0
:101E100023FFF0CF24FDE7CFD2CF2091F60123FDA1
:101E20002CC03091F70131FFEECF84EE90E00895A1
:101E30002091F60125FFDECF89E290E00895209100
:101E4000F60125FFD7CF85E390E008952091F601B4
:101E500026FFD0CF8AE290E008952091F60126FF78
:101E6000C9CF81E390E0089589E390E0089583EE7F
:101E700090E0089582EE90E0089586EE90E0089557
:101E80009091F60192FF06C0282F28712830F9F4AE
:101E9000877F846093FF06C0282F28712831F1F4D2
:101EA000877E84612091F70120FF06C0382F3871AA
:101EB0003830D9F4877F816021FF06C0282F287130
:101EC0002831D1F4877E816194FD877E0895282F83
:101ED00024712430F9F68B7F8860DCCF282F2471A1
:101EE000243101F78B7E8861DDCF382F317131309D
:101EF00019F78E7F8860E0CF282F2171213121F7DB
:101F00008E7E8861E1CF80E008950C94EC0B0E94F6
:101F10009D108FE39CE90197F1F700C000000E943B
:101F20009D1080E00E94C70F80FF04C00E94850FB3
:101F30000C94291508950C94870F0E94F20B8111BF
:101F400002C00E94970C0E94FD0B8093C4010E9466
:101F5000050C9093F7018093F6010E949B0F0E945D
:101F6000010C682F70E090E080E00E94F105609124
:101F700050017091510180915201909153010C9444
:101F80002B0608950C94C10F08950C94C40FE82FEC
:101F9000F0E0EE0FFF1FE250FE4F80819181089527
:101FA000089580EA8A95F1F7089500C008950C9489
:101FB000D10FF894E82FE295EF70F0E031A1282FCF
:101FC0002F7081E090E001C0880F2A95EAF7982FE2
:101FD0009095932391A392A1892B82A3789408953D
:101FE000CF93DF9387E30E94D90F86E90E94D90F30
:101FF00087E60E94D90FC6E1D1E089918F3F11F0A9
:102000000E94D90F81E0C132D807B9F7DF91CF9193
:102010000895AF92BF92CF92DF92EF92FF920F930B
:102020001F93CF93DF938C01B62EC62FD0E0CE0145
:102030008F5D9E4F7C01FC0120812F3F09F453C02E
:10204000F894E22FE295EF70F0E031A12F7081E07B
:1020500090E001C0880F2A95EAF7932F982B91A35F
:1020600092A18095892382A378940E94D50FE6E1FE
:10207000F1E030E020E0D12CC12C41E050E0819132
:102080008F3FE1F1A82FA295AF70B0E090966C91D0
:1020900070E08F7002C0759567958A95E2F760FDD4
:1020A0002DC0CA01022E02C0880F991F0A94E2F7C0
:1020B000C82AD92A2F5F3F4F2B30310501F7F7018E
:1020C00080818F3F11F00E94D90F61E0C114D104CB
:1020D00009F460E08B2D0E94D70FCC0FDD1FC00FDD
:1020E000D11FD982C882DF91CF911F910F91FF90AC
:1020F000EF90DF90CF90BF90AF90089590E080E098
:10210000D7CF0E94F00FA8EFB1E011961C921E925B
:10211000EEEFF1E01182108213961C921E9212973C
:102120001382128215961C921E92149715821482A5
:1021300083E00E94E8100C94B101FF920F931F936B
:10214000CF93DF9300D000D000D0CDB7DEB78E01A3
:102150000F5F1F4F86E0F80111928A95E9F760E062
:10216000C8010E94091061E0C8010E94091062E0E4
:10217000C8010E94091046E050E0B80188EF91E0E4
:102180000E940F1CFF24F394009709F4F12C892B73
:1021900041F086E0F801A8EFB1E001900D928A9538
:1021A000E1F72F2D43E06EEF71E088EF91E00E94A0
:1021B000E9100E94B7018F2D26960FB6F894DEBF66
:1021C0000FBECDBFDF91CF911F910F91FF9008956A
:1021D0000895FF920F931F93CF93DF93F82E092F4B
:1021E000162FD72FC42F222349F081E08093C701F7
:1021F0000E94DE149093C6018093C5018091C701AF
:102200008823A1F08091C5019091C6010E94F61427
:10221000059760F0EF2DF02FA12FBD2F90E080E00B
:10222000D0E08C179D0744F01092C701DF91CF9149
:102230001F910F91FF900895219131912D933D931E
:102240000196EFCF0E945A140E94C1160E94DA161E
:102250000E94EC160E94CF0CFBCF9C0120543A4503
:102260002034310538F4FB01628180540E949815B6
:1022700080E0089581E008950F931F93CF93DF933B
:10228000C42FD22FFC0182818823C9F04093CA0158
:102290000E94DE149093C9018093C80180E28C0FE4
:1022A000883008F050C0C77081E001C0880FCA951F
:1022B000EAF7DF91CF911F910F910C945203109187
:1022C000CA01141335C08091C8019091C9010E94C0
:1022D000F614883C910560F5C0E2CD0F1D17B9F0EA
:1022E00080E2810F883040F4177081E001C0880FD0
:1022F0001A95EAF70E945903C83048F481E09D2FEF
:10230000977001C0880F9A95EAF70E945203802FB8
:102310000E944A03C830B8F4D77081E001C0880F2A
:10232000DA95EAF7DF91CF911F910F910C94590341
:1023300080E28C0F883038F4C77081E001C0880FCC
:10234000CA95EAF7EFCFDF91CF911F910F910895D2
:102350000F939C01CB01243F4CE5340759F1A8F4BD
:10236000293DFCE53F0701F12A3D4CE53407D1F159
:10237000283D3C4591F406E221EE41EE68ED7CE516
:102380000E943C1180E00F910895263FFCE53F0735
:10239000E9F0B0F0273F3C45F9F0FC018281882349
:1023A00039F11092CA01EFCF07E225EE45EE69ED53
:1023B0007CE5E6CF06E221EE40EE64EF7CE5E0CF7F
:1023C00007E225EE44EE65EF7CE5DACF06E221EE8A
:1023D00042EE66EF7CE5D4CF07E225EE46EE67EFEE
:1023E0007CE5CECF08E221E045EE6AED7CE5C8CF82
:1023F00081E0C9CFCF93DF93EC01FB018281882379
:1024000009F419C1C230FCE5DF07C0F1C6319CE513
:10241000D90730F09E012B5F3C452930310570F51E
:102420000E94050C9093F7018093F601C031ECE512
:10243000DE0709F4CFC008F05BC0C8308CE5D807D0
:1024400009F4B6C088F5C430ECE5DE0709F4A8C08D
:10245000C0F4C2308CE5D80709F49CC08091F60125
:102460008260C330DC4509F498C08091F6019091F8
:10247000F7010E94130C0E94980580E0DF91CF9134
:1024800008958091F6018061C630ECE5DE0709F41D
:1024900084C08091F6018860C730DC4508F47DC0B7
:1024A0008091F601806279C0CC308CE5D80709F4C0
:1024B00089C070F48091F6018C60CA30ECE5DE07CB
:1024C00009F46BC008F478C08091F6018E7F65C076
:1024D000CE308CE5D80709F479C08091F6018B7F66
:1024E000CF30DC4508F459C08091F6018F7E55C08D
:1024F000CC3FECE5DE0709F457C030F5C3318CE57D
:10250000D80709F46FC078F4C131ECE5DE0709F4AF
:1025100065C0C231DC4509F0A8CF0E9498058091C2
:10252000F6018F773AC0C5318CE5D80709F462C04F
:1025300008F476C08091F7018160CB3FDC4509F05B
:1025400094CF8093F70191CFC115FDE5DF0709F422
:102550004DC088F48091F7018D7FCE3F9CE5D9076F
:1025600081F38091F7018E7FCF3FDC4550F380915E
:10257000F7018360E6CFC230FDE5DF0709F459C0FB
:1025800008F444C080E0C330DD4509F06ECF0E94FE
:10259000990C6BCF8091F60181608093F60165CF35
:1025A0008091F6018460F9CF8091F7018260C9CFF4
:1025B0008091F6018064F1CF0E9498058091F60128
:1025C0008068EBCF8091F6018D7FE7CF8091F60197
:1025D000877FE3CF8091F6018F7DDFCF8091F60179
:1025E0008F7BDBCF8091F601837FD7CF8091F7017E
:1025F0008C7FA7CF8091F60182FB992790F921E08B
:10260000922790FB82F990FB83F9C7CF8091F70165
:10261000982F909591708E7F892B90FB81F991CFA7
:102620000E9498059091F601892F97FB87F98058B1
:10263000B4CF81E0ACCF81E021CFCF93DF93EB012A
:1026400086319C4511F50E942F0B9A81992399F0B0
:102650008A7A91E009F490E09093CB01811109C04E
:1026600089E20E94E90A0E947F0B80E0DF91CF910E
:10267000089585E3F6CF8091CB01811104C089E2F2
:102680000E94F00AF0CF85E3FBCF81E0EFCF90937B
:10269000D1018093D0010895E091D001F091D10152
:1026A000309721F00190F081E02D099480E00895A9
:1026B000E091D001F091D101309799F0209115016E
:1026C000222359F02091F60127FF07C0DC012C914D
:1026D00011962C93119725E02C930280F381E02D25
:1026E000099408952091CE013091CF012817390720
:1026F00071F09093CF018093CE01E091D001F091E1
:10270000D101309721F00680F781E02D09940895DA
:102710002091CC013091CD012817390771F09093A9
:10272000CD018093CC01E091D001F091D10130979F
:1027300021F00084F185E02D09940895FC01329682
:1027400080911501882321F08091F6019EE187FF99
:1027500096E080E0915008F4089521912223D1F36E
:102760008F5FF8CF662301F1209115012223F1F04C
:102770002091F60127FF1AC0462F469546954695AB
:102780004E3190F4677021E030E002C0220F331F19
:102790006A95E2F7840F911DFC01828190E0282365
:1027A000392381E0232B69F480E00895FC013296FF
:1027B00008962191261721F0E817F907D1F7F4CFF1
:1027C00081E008959C01FC0132969FEF80E04191E9
:1027D000461751F09F3F19F4411101C0982F8F5FA8
:1027E0008630A9F79F3F09F40895290F311D97FD01
:1027F0003A95F90162830895FC0132960896219179
:10280000261303C0DF0111971C92E817F907B9F7E7
:102810000895E62FE695E695E695EE3168F4E80F23
:10282000F92FF11D677021E030E001C0220F6A9599
:10283000EAF78281822B82830895E62FE695E6955A
:10284000E695EE3170F4E80FF92FF11D677021E085
:1028500030E001C0220F6A95EAF720958281282393
:102860002283089520911501222329F02091F60159
:1028700027FD0C9409140C94E213209115012223D6
:1028800029F02091F60127FD0C941D140C94FC13E3
:10289000FC01329680911501882351F08091F60158
:1028A00087FF06C08EE1DF011D928A95E9F7089542
:1028B00086E0F9CF0895089508950C945C148091F2
:1028C0000C02843049F10E945D1480E00E942902CC
:1028D0001092D20188E190E020E40FB6F894A89518
:1028E000809360000FBE2093600083B7817F846077
:1028F00083BF83B7816083BF7894889583B78E7FC9
:1029000083BF0FB6F894A89580916000886180938A
:102910006000109260000FBE08950895CF930E944A
:102920005B140E949D100E948D14C0E08C2F0E94A9
:10293000C70F892B31F4CF5FC330C1F780E0CF914F
:10294000089581E0FCCF08950C94A3140E9498058B
:102950000E944C130E9429020C94A4141F921FB6CB
:102960001F9211248F939F93AF93BF938091D201B5
:10297000811113C08091040290910502A09106027A
:10298000B09107024196A11DB11D8093040290935E
:102990000502A0930602B0930702BF91AF919F91E9
:1029A0008F911F901FBE1F90189582E084BD93E009
:1029B00095BD9AEF97BD80936E0008952FB7F89458
:1029C0008091040290910502A0910602B091070245
:1029D0002FBF08952FB7F8946091040270910502FB
:1029E00080910602909107022FBF08959C014FB776
:1029F000F8948091040290910502A0910602B09192
:102A000007024FBF821B930B089578941F921FB645
:102A10001F9211248F939F93AF93BF9380910402D1
:102A200090910502A0910602B09107020196A11DA6
:102A3000B11D8093040290930502A0930602B09307
:102A40000702BF91AF919F918F911F901FBE1F9062
:102A5000189581E08093E00080E28093D800109286
:102A6000C9008FE19EE40197F1F700C0000087E004
:102A700090EBDC018093150290931602A09317024D
:102A8000B093180288E19CE00FB6F894A895809363
:102A900060000FBE90936000FFCF9093350180934C
:102AA000340108958091F40108950895CF93DF9340
:102AB000EC01809115018823B1F18091F60187FF27
:102AC00032C060E283E08093E9008FEF9091E800EC
:102AD000815095FD06C095ED9A95F1F700008111A2
:102AE000F5CF8091E80085FF1BC08091150170E053
:102AF00050E040E0811104C050E040E068E070E048
:102B0000CE010E9478178091E8008E778093E800CC
:102B100080E2FE01A4EDB1E001900D928A95E1F70B
:102B2000DF91CF91089568E081E0CDCF08950895B9
:102B3000E82FE695E695E695F0E0ED5FFE4F4081E3
:102B4000282F30E0209530952770332781E090E0E2
:102B500001C0880F2A95EAF7662331F0842B808321
:102B600081E08093D301089580958423F8CFCF939B
:102B700080910C02843039F58091D301882319F1BA
:102B8000C091E900CF709091EC00892F817090FD89
:102B900080E8C82B82E08093E9008091E80080FF04
:102BA0000FC050E040E069E070E082E091E00E94F8
:102BB00078178091E8008E778093E8001092D30117
:102BC000CF70C093E900CF91089580910B028111DD
:102BD00009C00E9408190E9465198091E200846072
:102BE0008093E200089510920B02089508950895CD
:102BF000089542E061EC81E00E94841842E261ECB9
:102C000083E00E94841842E161EC82E00C94841815
:102C100080910E02833009F461C030F48130D1F12B
:102C2000823009F49DC008958A3009F489C08B3040
:102C300009F46FC0893009F050C080910D028132D3
:102C400009F04BC08091110290911202009719F087
:102C5000029709F042C08091E800877F8093E800E6
:102C60008091E80082FF35C09091F3008091F200DE
:102C7000029729F48091F1008B7F813021F48091BB
:102C8000F1008093F4018091E8008B778093E80055
:102C90000C94B81880910D02813AF9F48091E80003
:102CA000877F8093E8008091110290911202892B16
:102CB00061F460E284ED91E070E00E94C7178091BA
:102CC000E8008B778093E800089560E090E080E072
:102CD000F3CF80910C028111C3CF089580910D0232
:102CE000813AD9F78091110290911202892BA9F7AC
:102CF0008091E800877F8093E8008091E80080FF62
:102D0000FCCF809115018093F1008091E8008E77CF
:102D1000BDCF80910D02813201F780911102909117
:102D20001202892BD1F68091E800877F8093E8001A
:102D30000E94B81880910F02809315010C94980599
:102D400080910D02813249F68091E800877F80935F
:102D5000E8000E94B818809110028093F501089550
:102D600080910D02813A09F0B8CF8091E800877F09
:102D70008093E8008091E80080FFFCCF8091F5010E
:102D8000C2CF84B7877F84BF0FB6F894A89580918F
:102D90006000886180936000109260000FBE80E840
:102DA00090E00FB6F89480936100909361000FBE9D
:102DB0000C94BF0C0E9408190E946519E2EEF0E025
:102DC00080818460808378940E94EE1B0E94D30CE3
:102DD0008BE091E00C94471380910C02853031F424
:102DE00080910C02853031F00E94A6140E94E40C00
:102DF0000C94B7150E945F1480910A02882381F316
:102E00000E948E14882361F30E9462170E94980525
:102E1000E7CF0C940B17292F33272330310521F1ED
:102E200068F42130310509F443C02230310509F43A
:102E300044C090E080E030E020E026C0213231053F
:102E400051F122323105A9F76330710590F7FB018A
:102E5000EE0FFF1FE95DFE4F208131816C5D7E4FDB
:102E6000FB01808190E010C099278130910581F0AD
:102E7000009729F00297E9F6EEEEF0E002C0E0E2FA
:102E8000F1E0849190E09F01FA013183208308955D
:102E9000E0E0F1E0F6CF6330710558F6660F771F7A
:102EA000FB01E35DFE4F2081318189E090E0ECCFB2
:102EB00082E190E028E731E0E7CF84E590E024E28A
:102EC00031E0E2CF80E189BD82E189BD09B400FE35
:102ED000FDCF8091D8008F7D8093D8008091E00055
:102EE00082608093E0008091E00081FDFCCF089536
:102EF000AF92BF92CF92DF92FF920F931F93CF9327
:102F0000DF936C01EB018A010E94D718F82E811122
:102F100023C00115110539F0F80180819181C81B8A
:102F2000D90BC80ED91EB12CA12C2097A9F08091E5
:102F3000E80085FD22C08091E8008E778093E8004C
:102F400001151105A1F0F80180819181A80EB91E2B
:102F5000B182A08285E0F82E8F2DDF91CF911F9155
:102F60000F91FF90DF90CF90BF90AF9008950E9497
:102F7000D7188823D1F2F82EEFCFF60181916F0197
:102F80008093F1002197FFEFAF1ABF0ACECFFC016B
:102F9000809113029091140286179707A0F0611593
:102FA000710529F49091E8009E779093E80090E0F5
:102FB0006115710551F4911108C08091E80082FFFC
:102FC00034C080E00895BC01F2CF80910C028823C8
:102FD000C1F18530C1F18091E80083FD30C080915E
:102FE000E80082FDEACF8091E80080FFE1CF809188
:102FF000F3002091F200382F6115710519F0283087
:10300000310558F091E02830310509F090E0209129
:10301000E8002E772093E800CBCF81918093F100D8
:10302000615071092F5F3F4FE7CF80910C028823D9
:1030300041F0853041F08091E80083FFBECF81E010
:10304000089582E0089583E00895FC0180911302C1
:103050009091140286179707A0F06115710529F465
:103060008091E8008E778093E80090E0611571050B
:1030700051F4911108C08091E80082FF35C080E0D2
:103080000895BC01F2CF80910C028823C9F18530EC
:10309000C9F18091E80083FD31C08091E80082FD94
:1030A000EACF8091E80080FFE1CF8091F30020918A
:1030B000F200382F6115710519F02830310558F0EC
:1030C00091E02830310509F090E08091E8008E779A
:1030D0008093E800CBCF84918093F10031966150CA
:1030E00071092F5F3F4FE6CF80910C02882341F09A
:1030F000853041F08091E80083FFBDCF81E00895E5
:1031000082E0089583E00895982F973028F08F701B
:103110008093E90081E008959093E900242F762FB1
:1031200050E0981731F07091EC002091ED00509133
:10313000F00021FD02C09F5FE8CF3091EB003E7FA1
:103140003093EB003091ED003D7F3093ED003091F6
:10315000EB0031603093EB007093EC002093ED00B6
:103160005093F0002091EE0027FDE5CF80E0089518
:1031700080910D0287FF13C08091E80082FF06C096
:103180008091E8008B778093E80004C080910C0266
:103190008111F2CF089580910C028823D9F3809198
:1031A000E80080FFF8CF8091E8008E77ECCF209187
:1031B000E4003091E50095E6A9012091EC00822F12
:1031C000817020FF06C08091E80080FF06C080E08B
:1031D00008952091E80022FD1AC080910C028823F6
:1031E00089F0853089F08091EB0085FD0FC020913A
:1031F000E4003091E50042175307F9F29150E1F6EF
:1032000084E0089582E0089583E0089581E00895C0
:103210000E9476190E947E19E0EEF0E080818160C4
:103220008083E8EDF0E080818F77808319BCA7ED83
:10323000B0E08C918E7F8C9380818F7E8083109202
:103240000B0208950F931F93CF93DF930E9476197B
:103250000E947E19C8EDD0E088818F7788838881AD
:103260008068888388818F7D888319BC10920C02C6
:103270001092080210920A021092090200EE10E069
:10328000F80180818B7F808388818160888342E020
:1032900060E080E00E948418E1EEF0E080818E7FA3
:1032A0008083E2EEF0E080818160808380818860AD
:1032B0008083F80180818E7F80838881806188830C
:1032C000DF91CF911F910F910895E8EDF0E080819B
:1032D0008F7E8083E7EDF0E080818160808384E0F1
:1032E00082BF81E080930B020C942219E8EDF0E09C
:1032F00080818E7F80831092E20008951092DA0020
:103300001092E10008951F920F920FB60F921124B0
:103310002F933F934F935F936F937F938F939F93DD
:10332000AF93BF93EF93FF938091E10082FF0BC0B7
:103330008091E20082FF07C08091E1008B7F809343
:10334000E1000E94ED1B8091DA0080FF19C080919E
:10335000D80080FF15C08091DA008E7F8093DA005C
:103360008091D90080FF96C080E189BD82E189BD4E
:1033700009B400FEFDCF81E080930C020E94E515A8
:103380008091E10080FF19C08091E20080FF15C0AC
:103390008091E2008E7F8093E2008091E200806164
:1033A0008093E2008091D80080628093D80019BC9D
:1033B00085E080930C020E94F7158091E10084FF64
:1033C0002BC08091E20084FF27C080E189BD82E1AB
:1033D00089BD89B5982F917080FFFBCF8091D8006F
:1033E0008F7D8093D8008091E1008F7E8093E100F3
:1033F0008091E2008F7E8093E2008091E200816004
:103400008093E20080910802882309F449C084E097
:1034100080930C020E94F8158091E10083FF29C07F
:103420008091E20083FF25C08091E100877F809337
:10343000E10082E080930C02109208028091E1008A
:103440008E7F8093E1008091E2008E7F8093E20086
:103450008091E20080618093E20042E060E080E0E1
:103460000E9484188091F00088608093F0000E9490
:10347000F615FF91EF91BF91AF919F918F917F9141
:103480006F915F914F913F912F910F900FBE0F90D1
:103490001F90189519BC10920C020E94F31570CF62
:1034A0008091E30087FD93E090930C02B3CF1F92CD
:1034B0000F920FB60F9211242F933F934F935F9368
:1034C0006F937F938F939F93AF93BF93CF93DF932C
:1034D000EF93FF93D091E900DF708091EC00C82F4B
:1034E000C17080FDC0E81092E9008091F000877FF4
:1034F0008093F00078940E949B1A1092E9008091CA
:10350000F00088608093F000CD2BCF70C093E9006D
:10351000FF91EF91DF91CF91BF91AF919F918F91EB
:103520007F916F915F914F913F912F910F900FBEBF
:103530000F901F9018951F93CF93DF93CDB7DEB7F1
:10354000AA970FB6F894DEBF0FBECDBF8DE092E014
:103550002091F100FC012193CF01F2E085319F071A
:10356000B9F70E9408168091E80083FF1EC1809180
:103570000D0290910E029A3008F017C1E92FF0E089
:10358000E258F34E0C94091C803899F0823809F007
:103590000CC1809111028F70873008F006C18093B2
:1035A000E9008091EB0085FB882780F91092E90003
:1035B00006C08091090290910A0291118260909157
:1035C000E800977F9093E8008093F1001092F1005B
:1035D0008091E8008E77E5C0882309F4D3C082305B
:1035E00009F0E3C080910F028111D6C080911102D1
:1035F0008F702FEF280F263008F0D7C08093E90096
:103600002091EB0020FFC8C0933031F48091EB0093
:1036100080628093EB00C0C09091EB00906190932A
:10362000EB0021E030E001C0220F8A95EAF72093F9
:10363000EA001092EA008091EB008860EACF8111E5
:10364000B4C010910F021F778091E3008078812B26
:103650008093E3008091E800877F8093E8000E94D8
:10366000B8188091E80080FFFCCF8091E30080686B
:103670008093E30082E0111183E080930C0295C0F7
:103680008058823008F091C080910F029091100212
:103690008C3D23E09207A1F583E08A838AE2898347
:1036A0004FB7F894DE01139620E03EE051E2E32F9D
:1036B000F0E050935700E49120FF03C0E295EF70D3
:1036C0003F5FEF708E2F90E0EA30C0F0C7968D9389
:1036D0009D932F5F243159F74FBF8091E800877F7A
:1036E0008093E8006AE270E0CE0101960E94C7175D
:1036F0008091E8008B778093E80057C0C096E7CFB1
:103700006091110270911202AE014F5F5F4F0E94F3
:103710000917BC01892B09F448C09091E800977FF4
:103720009093E80089819A810E942518E1CF803822
:10373000E1F58091E800877F8093E800809108029E
:103740008093F10045CF811130C090910F029230EB
:1037500060F58091E800877F8093E80090930802ED
:103760000E94B81880910802882311F084E005C0F7
:103770008091E30087FDFACF81E080930C020E94E4
:10378000F91513C080910F02813079F481E09330F4
:1037900009F080E080930A021092E9008091E8002D
:1037A000877F8093E8000E94B8188091E80083FF2B
:1037B0000AC08091E800877F8093E8008091EB0049
:1037C00080628093EB00AA960FB6F894DEBF0FBE1E
:1037D000CDBFDF91CF911F9108950895CF93809130
:1037E0000C028823A1F0C091E900CF709091EC0009
:1037F000892F817090FD80E8C82B1092E90080919C
:10380000E80083FD0E949B1ACF70C093E900CF911E
:103810000895EE0FFF1F0590F491E02D0994FB0130
:10382000DC0104C08D910190801921F44150504079
:10383000C8F7881B990B0895F999FECF92BD81BDF9
:10384000F89A992780B50895A8E1B0E042E050E0E9
:103850000C94501C262FF999FECF92BD81BDF89A89
:10386000019700B4021639F01FBA20BD0FB6F894C4
:10387000FA9AF99A0FBE08950396272F0E942B1CDF
:103880000E942A1C252F0E942B1C242F0C942B1CD9
:103890000196272F0E942B1C0C942A1CDC01CB01C3
:1038A000FC01F999FECF06C0F2BDE1BDF89A319650
:1038B00000B40D9241505040B8F70895F894FFCFEE
:1038C00094039403EC03EC03C103C103C103C103DC
:1038D0003E04CA04D904D9043505C103C1033E0519
:1038E000A705A705B005B005B205B005B005B00540
:1038F000A705A705B705B005B005B705C41AEC1AAA
:10390000D51BEC1AD51B1F1B401BD51B971BA31BDC
:1039100092010100000000000000005215561596AB
:10392000155515971501F0F1F4F5F69593929190D0
:103930009437966740263BEB018A01B00136014F70
:043940000168010019
:00000001FF
